{
	"AuctionSystem.sol": {
		"AuctionSystem": {
			"abi": [
				{
					"constant": true,
					"inputs": [
						{
							"name": "",
							"type": "uint256"
						},
						{
							"name": "",
							"type": "uint256"
						}
					],
					"name": "userOrders",
					"outputs": [
						{
							"name": "",
							"type": "uint256"
						}
					],
					"payable": false,
					"stateMutability": "view",
					"type": "function"
				},
				{
					"constant": false,
					"inputs": [
						{
							"name": "_orderId",
							"type": "uint256"
						},
						{
							"name": "_itemId",
							"type": "uint256"
						},
						{
							"name": "_buyerId",
							"type": "uint256"
						},
						{
							"name": "_dealPrice",
							"type": "uint256"
						},
						{
							"name": "_status",
							"type": "uint8"
						},
						{
							"name": "_updateTime",
							"type": "uint256"
						}
					],
					"name": "recordOrder",
					"outputs": [],
					"payable": false,
					"stateMutability": "nonpayable",
					"type": "function"
				},
				{
					"constant": true,
					"inputs": [
						{
							"name": "",
							"type": "uint256"
						},
						{
							"name": "",
							"type": "uint256"
						}
					],
					"name": "itemBidRecords",
					"outputs": [
						{
							"name": "",
							"type": "uint256"
						}
					],
					"payable": false,
					"stateMutability": "view",
					"type": "function"
				},
				{
					"constant": true,
					"inputs": [],
					"name": "nextOrderId",
					"outputs": [
						{
							"name": "",
							"type": "uint256"
						}
					],
					"payable": false,
					"stateMutability": "view",
					"type": "function"
				},
				{
					"constant": false,
					"inputs": [
						{
							"name": "_itemId",
							"type": "uint256"
						},
						{
							"name": "_bidderId",
							"type": "uint256"
						},
						{
							"name": "_bidPrice",
							"type": "uint256"
						},
						{
							"name": "_bidTime",
							"type": "uint256"
						}
					],
					"name": "recordBid",
					"outputs": [],
					"payable": false,
					"stateMutability": "nonpayable",
					"type": "function"
				},
				{
					"constant": true,
					"inputs": [
						{
							"name": "_itemId",
							"type": "uint256"
						}
					],
					"name": "getBidRecordsByItem",
					"outputs": [
						{
							"name": "ids",
							"type": "uint256[]"
						},
						{
							"name": "itemIds",
							"type": "uint256[]"
						},
						{
							"name": "bidderIds",
							"type": "uint256[]"
						},
						{
							"name": "bidPrices",
							"type": "uint256[]"
						},
						{
							"name": "bidTimes",
							"type": "uint256[]"
						}
					],
					"payable": false,
					"stateMutability": "view",
					"type": "function"
				},
				{
					"constant": true,
					"inputs": [
						{
							"name": "",
							"type": "uint256"
						}
					],
					"name": "bidRecords",
					"outputs": [
						{
							"name": "id",
							"type": "uint256"
						},
						{
							"name": "itemId",
							"type": "uint256"
						},
						{
							"name": "bidderId",
							"type": "uint256"
						},
						{
							"name": "bidPrice",
							"type": "uint256"
						},
						{
							"name": "bidTime",
							"type": "uint256"
						},
						{
							"name": "isExist",
							"type": "bool"
						}
					],
					"payable": false,
					"stateMutability": "view",
					"type": "function"
				},
				{
					"constant": true,
					"inputs": [
						{
							"name": "_userId",
							"type": "uint256"
						}
					],
					"name": "getOrdersByUser",
					"outputs": [
						{
							"name": "ids",
							"type": "uint256[]"
						},
						{
							"name": "itemIds",
							"type": "uint256[]"
						},
						{
							"name": "buyerIds",
							"type": "uint256[]"
						},
						{
							"name": "dealPrices",
							"type": "uint256[]"
						},
						{
							"name": "statuses",
							"type": "uint8[]"
						},
						{
							"name": "updateTimes",
							"type": "uint256[]"
						}
					],
					"payable": false,
					"stateMutability": "view",
					"type": "function"
				},
				{
					"constant": true,
					"inputs": [
						{
							"name": "",
							"type": "uint256"
						}
					],
					"name": "orders",
					"outputs": [
						{
							"name": "id",
							"type": "uint256"
						},
						{
							"name": "itemId",
							"type": "uint256"
						},
						{
							"name": "buyerId",
							"type": "uint256"
						},
						{
							"name": "dealPrice",
							"type": "uint256"
						},
						{
							"name": "status",
							"type": "uint8"
						},
						{
							"name": "updateTime",
							"type": "uint256"
						},
						{
							"name": "isExist",
							"type": "bool"
						}
					],
					"payable": false,
					"stateMutability": "view",
					"type": "function"
				},
				{
					"constant": true,
					"inputs": [],
					"name": "nextBidRecordId",
					"outputs": [
						{
							"name": "",
							"type": "uint256"
						}
					],
					"payable": false,
					"stateMutability": "view",
					"type": "function"
				},
				{
					"inputs": [],
					"payable": false,
					"stateMutability": "nonpayable",
					"type": "constructor"
				},
				{
					"anonymous": false,
					"inputs": [
						{
							"indexed": false,
							"name": "recordId",
							"type": "uint256"
						},
						{
							"indexed": false,
							"name": "itemId",
							"type": "uint256"
						},
						{
							"indexed": false,
							"name": "bidderId",
							"type": "uint256"
						},
						{
							"indexed": false,
							"name": "price",
							"type": "uint256"
						},
						{
							"indexed": false,
							"name": "bidTime",
							"type": "uint256"
						}
					],
					"name": "BidPlaced",
					"type": "event"
				},
				{
					"anonymous": false,
					"inputs": [
						{
							"indexed": false,
							"name": "orderId",
							"type": "uint256"
						},
						{
							"indexed": false,
							"name": "itemId",
							"type": "uint256"
						},
						{
							"indexed": false,
							"name": "buyerId",
							"type": "uint256"
						},
						{
							"indexed": false,
							"name": "dealPrice",
							"type": "uint256"
						},
						{
							"indexed": false,
							"name": "updateTime",
							"type": "uint256"
						}
					],
					"name": "OrderCreated",
					"type": "event"
				}
			],
			"devdoc": {
				"methods": {
					"getBidRecordsByItem(uint256)": {
						"details": "根据拍品ID查询所有竞拍记录\r",
						"params": {
							"_itemId": "拍品ID\r"
						},
						"return": "竞拍记录列表\r"
					},
					"getOrdersByUser(uint256)": {
						"details": "根据用户ID查询所有订单信息\r",
						"params": {
							"_userId": "用户ID\r"
						},
						"return": "订单信息列表\r"
					},
					"recordBid(uint256,uint256,uint256,uint256)": {
						"details": "记录竞拍行为上链\r",
						"params": {
							"_bidPrice": "出价金额\r",
							"_bidTime": "出价时间\r",
							"_bidderId": "出价者ID\r",
							"_itemId": "拍品ID\r"
						}
					},
					"recordOrder(uint256,uint256,uint256,uint256,uint8,uint256)": {
						"details": "记录拍卖成交结果上链\r",
						"params": {
							"_buyerId": "买家ID\r",
							"_dealPrice": "成交价格\r",
							"_itemId": "拍品ID\r",
							"_orderId": "订单ID\r",
							"_updateTime": "更新时间戳\r"
						}
					}
				}
			},
			"evm": {
				"assembly": "    /* \"AuctionSystem.sol\":28:6059  contract AuctionSystem {\r... */\n  mstore(0x40, 0x80)\n    /* \"AuctionSystem.sol\":1810:1895  constructor() public {\r... */\n  callvalue\n    /* \"--CODEGEN--\":8:17   */\n  dup1\n    /* \"--CODEGEN--\":5:7   */\n  iszero\n  tag_1\n  jumpi\n    /* \"--CODEGEN--\":30:31   */\n  0x0\n    /* \"--CODEGEN--\":27:28   */\n  dup1\n    /* \"--CODEGEN--\":20:32   */\n  revert\n    /* \"--CODEGEN--\":5:7   */\ntag_1:\n    /* \"AuctionSystem.sol\":1810:1895  constructor() public {\r... */\n  pop\n    /* \"AuctionSystem.sol\":1860:1861  1 */\n  0x1\n    /* \"AuctionSystem.sol\":1842:1857  nextBidRecordId */\n  0x0\n    /* \"AuctionSystem.sol\":1842:1861  nextBidRecordId = 1 */\n  dup2\n  swap1\n  sstore\n  pop\n    /* \"AuctionSystem.sol\":1886:1887  1 */\n  0x1\n    /* \"AuctionSystem.sol\":1872:1883  nextOrderId */\n  dup1\n    /* \"AuctionSystem.sol\":1872:1887  nextOrderId = 1 */\n  dup2\n  swap1\n  sstore\n  pop\n    /* \"AuctionSystem.sol\":28:6059  contract AuctionSystem {\r... */\n  dataSize(sub_0)\n  dup1\n  dataOffset(sub_0)\n  0x0\n  codecopy\n  0x0\n  return\nstop\n\nsub_0: assembly {\n        /* \"AuctionSystem.sol\":28:6059  contract AuctionSystem {\r... */\n      mstore(0x40, 0x80)\n      jumpi(tag_1, lt(calldatasize, 0x4))\n      calldataload(0x0)\n      0x100000000000000000000000000000000000000000000000000000000\n      swap1\n      div\n      0xffffffff\n      and\n      dup1\n      0x6703c65\n      eq\n      tag_2\n      jumpi\n      dup1\n      0xdc8c9b3\n      eq\n      tag_3\n      jumpi\n      dup1\n      0x142d8a3e\n      eq\n      tag_4\n      jumpi\n      dup1\n      0x2a58b330\n      eq\n      tag_5\n      jumpi\n      dup1\n      0x79ba5664\n      eq\n      tag_6\n      jumpi\n      dup1\n      0x79fe1130\n      eq\n      tag_7\n      jumpi\n      dup1\n      0x9bab0586\n      eq\n      tag_8\n      jumpi\n      dup1\n      0xa13b0196\n      eq\n      tag_9\n      jumpi\n      dup1\n      0xa85c38ef\n      eq\n      tag_10\n      jumpi\n      dup1\n      0xe652ba76\n      eq\n      tag_11\n      jumpi\n    tag_1:\n      0x0\n      dup1\n      revert\n        /* \"AuctionSystem.sol\":1330:1377  mapping(uint256 => uint256[]) public userOrders */\n    tag_2:\n      callvalue\n        /* \"--CODEGEN--\":8:17   */\n      dup1\n        /* \"--CODEGEN--\":5:7   */\n      iszero\n      tag_12\n      jumpi\n        /* \"--CODEGEN--\":30:31   */\n      0x0\n        /* \"--CODEGEN--\":27:28   */\n      dup1\n        /* \"--CODEGEN--\":20:32   */\n      revert\n        /* \"--CODEGEN--\":5:7   */\n    tag_12:\n        /* \"AuctionSystem.sol\":1330:1377  mapping(uint256 => uint256[]) public userOrders */\n      pop\n      tag_13\n      0x4\n      dup1\n      calldatasize\n      sub\n      dup2\n      add\n      swap1\n      dup1\n      dup1\n      calldataload\n      swap1\n      0x20\n      add\n      swap1\n      swap3\n      swap2\n      swap1\n      dup1\n      calldataload\n      swap1\n      0x20\n      add\n      swap1\n      swap3\n      swap2\n      swap1\n      pop\n      pop\n      pop\n      jump(tag_14)\n    tag_13:\n      mload(0x40)\n      dup1\n      dup3\n      dup2\n      mstore\n      0x20\n      add\n      swap2\n      pop\n      pop\n      mload(0x40)\n      dup1\n      swap2\n      sub\n      swap1\n      return\n        /* \"AuctionSystem.sol\":3072:3678  function recordOrder(uint256 _orderId, uint256 _itemId, uint256 _buyerId, uint256 _dealPrice, uint8 _status, uint256 _updateTime) public {\r... */\n    tag_3:\n      callvalue\n        /* \"--CODEGEN--\":8:17   */\n      dup1\n        /* \"--CODEGEN--\":5:7   */\n      iszero\n      tag_15\n      jumpi\n        /* \"--CODEGEN--\":30:31   */\n      0x0\n        /* \"--CODEGEN--\":27:28   */\n      dup1\n        /* \"--CODEGEN--\":20:32   */\n      revert\n        /* \"--CODEGEN--\":5:7   */\n    tag_15:\n        /* \"AuctionSystem.sol\":3072:3678  function recordOrder(uint256 _orderId, uint256 _itemId, uint256 _buyerId, uint256 _dealPrice, uint8 _status, uint256 _updateTime) public {\r... */\n      pop\n      tag_16\n      0x4\n      dup1\n      calldatasize\n      sub\n      dup2\n      add\n      swap1\n      dup1\n      dup1\n      calldataload\n      swap1\n      0x20\n      add\n      swap1\n      swap3\n      swap2\n      swap1\n      dup1\n      calldataload\n      swap1\n      0x20\n      add\n      swap1\n      swap3\n      swap2\n      swap1\n      dup1\n      calldataload\n      swap1\n      0x20\n      add\n      swap1\n      swap3\n      swap2\n      swap1\n      dup1\n      calldataload\n      swap1\n      0x20\n      add\n      swap1\n      swap3\n      swap2\n      swap1\n      dup1\n      calldataload\n      0xff\n      and\n      swap1\n      0x20\n      add\n      swap1\n      swap3\n      swap2\n      swap1\n      dup1\n      calldataload\n      swap1\n      0x20\n      add\n      swap1\n      swap3\n      swap2\n      swap1\n      pop\n      pop\n      pop\n      jump(tag_17)\n    tag_16:\n      stop\n        /* \"AuctionSystem.sol\":1237:1288  mapping(uint256 => uint256[]) public itemBidRecords */\n    tag_4:\n      callvalue\n        /* \"--CODEGEN--\":8:17   */\n      dup1\n        /* \"--CODEGEN--\":5:7   */\n      iszero\n      tag_18\n      jumpi\n        /* \"--CODEGEN--\":30:31   */\n      0x0\n        /* \"--CODEGEN--\":27:28   */\n      dup1\n        /* \"--CODEGEN--\":20:32   */\n      revert\n        /* \"--CODEGEN--\":5:7   */\n    tag_18:\n        /* \"AuctionSystem.sol\":1237:1288  mapping(uint256 => uint256[]) public itemBidRecords */\n      pop\n      tag_19\n      0x4\n      dup1\n      calldatasize\n      sub\n      dup2\n      add\n      swap1\n      dup1\n      dup1\n      calldataload\n      swap1\n      0x20\n      add\n      swap1\n      swap3\n      swap2\n      swap1\n      dup1\n      calldataload\n      swap1\n      0x20\n      add\n      swap1\n      swap3\n      swap2\n      swap1\n      pop\n      pop\n      pop\n      jump(tag_20)\n    tag_19:\n      mload(0x40)\n      dup1\n      dup3\n      dup2\n      mstore\n      0x20\n      add\n      swap2\n      pop\n      pop\n      mload(0x40)\n      dup1\n      swap2\n      sub\n      swap1\n      return\n        /* \"AuctionSystem.sol\":1035:1061  uint256 public nextOrderId */\n    tag_5:\n      callvalue\n        /* \"--CODEGEN--\":8:17   */\n      dup1\n        /* \"--CODEGEN--\":5:7   */\n      iszero\n      tag_21\n      jumpi\n        /* \"--CODEGEN--\":30:31   */\n      0x0\n        /* \"--CODEGEN--\":27:28   */\n      dup1\n        /* \"--CODEGEN--\":20:32   */\n      revert\n        /* \"--CODEGEN--\":5:7   */\n    tag_21:\n        /* \"AuctionSystem.sol\":1035:1061  uint256 public nextOrderId */\n      pop\n      tag_22\n      jump(tag_23)\n    tag_22:\n      mload(0x40)\n      dup1\n      dup3\n      dup2\n      mstore\n      0x20\n      add\n      swap2\n      pop\n      pop\n      mload(0x40)\n      dup1\n      swap2\n      sub\n      swap1\n      return\n        /* \"AuctionSystem.sol\":2158:2761  function recordBid(uint256 _itemId, uint256 _bidderId, uint256 _bidPrice, uint256 _bidTime) public {\r... */\n    tag_6:\n      callvalue\n        /* \"--CODEGEN--\":8:17   */\n      dup1\n        /* \"--CODEGEN--\":5:7   */\n      iszero\n      tag_24\n      jumpi\n        /* \"--CODEGEN--\":30:31   */\n      0x0\n        /* \"--CODEGEN--\":27:28   */\n      dup1\n        /* \"--CODEGEN--\":20:32   */\n      revert\n        /* \"--CODEGEN--\":5:7   */\n    tag_24:\n        /* \"AuctionSystem.sol\":2158:2761  function recordBid(uint256 _itemId, uint256 _bidderId, uint256 _bidPrice, uint256 _bidTime) public {\r... */\n      pop\n      tag_25\n      0x4\n      dup1\n      calldatasize\n      sub\n      dup2\n      add\n      swap1\n      dup1\n      dup1\n      calldataload\n      swap1\n      0x20\n      add\n      swap1\n      swap3\n      swap2\n      swap1\n      dup1\n      calldataload\n      swap1\n      0x20\n      add\n      swap1\n      swap3\n      swap2\n      swap1\n      dup1\n      calldataload\n      swap1\n      0x20\n      add\n      swap1\n      swap3\n      swap2\n      swap1\n      dup1\n      calldataload\n      swap1\n      0x20\n      add\n      swap1\n      swap3\n      swap2\n      swap1\n      pop\n      pop\n      pop\n      jump(tag_26)\n    tag_25:\n      stop\n        /* \"AuctionSystem.sol\":3866:4834  function getBidRecordsByItem(uint256 _itemId) public view returns (\r... */\n    tag_7:\n      callvalue\n        /* \"--CODEGEN--\":8:17   */\n      dup1\n        /* \"--CODEGEN--\":5:7   */\n      iszero\n      tag_27\n      jumpi\n        /* \"--CODEGEN--\":30:31   */\n      0x0\n        /* \"--CODEGEN--\":27:28   */\n      dup1\n        /* \"--CODEGEN--\":20:32   */\n      revert\n        /* \"--CODEGEN--\":5:7   */\n    tag_27:\n        /* \"AuctionSystem.sol\":3866:4834  function getBidRecordsByItem(uint256 _itemId) public view returns (\r... */\n      pop\n      tag_28\n      0x4\n      dup1\n      calldatasize\n      sub\n      dup2\n      add\n      swap1\n      dup1\n      dup1\n      calldataload\n      swap1\n      0x20\n      add\n      swap1\n      swap3\n      swap2\n      swap1\n      pop\n      pop\n      pop\n      jump(tag_29)\n    tag_28:\n      mload(0x40)\n      dup1\n      dup1\n      0x20\n      add\n      dup1\n      0x20\n      add\n      dup1\n      0x20\n      add\n      dup1\n      0x20\n      add\n      dup1\n      0x20\n      add\n      dup7\n      dup2\n      sub\n      dup7\n      mstore\n      dup12\n      dup2\n      dup2\n      mload\n      dup2\n      mstore\n      0x20\n      add\n      swap2\n      pop\n      dup1\n      mload\n      swap1\n      0x20\n      add\n      swap1\n      0x20\n      mul\n      dup1\n      dup4\n      dup4\n        /* \"--CODEGEN--\":23:24   */\n      0x0\n        /* \"--CODEGEN--\":8:108   */\n    tag_30:\n        /* \"--CODEGEN--\":33:36   */\n      dup4\n        /* \"--CODEGEN--\":30:31   */\n      dup2\n        /* \"--CODEGEN--\":27:37   */\n      lt\n        /* \"--CODEGEN--\":8:108   */\n      iszero\n      tag_31\n      jumpi\n        /* \"--CODEGEN--\":99:100   */\n      dup1\n        /* \"--CODEGEN--\":94:97   */\n      dup3\n        /* \"--CODEGEN--\":90:101   */\n      add\n        /* \"--CODEGEN--\":84:102   */\n      mload\n        /* \"--CODEGEN--\":80:81   */\n      dup2\n        /* \"--CODEGEN--\":75:78   */\n      dup5\n        /* \"--CODEGEN--\":71:82   */\n      add\n        /* \"--CODEGEN--\":64:103   */\n      mstore\n        /* \"--CODEGEN--\":52:54   */\n      0x20\n        /* \"--CODEGEN--\":49:50   */\n      dup2\n        /* \"--CODEGEN--\":45:55   */\n      add\n        /* \"--CODEGEN--\":40:55   */\n      swap1\n      pop\n        /* \"--CODEGEN--\":8:108   */\n      jump(tag_30)\n    tag_31:\n        /* \"--CODEGEN--\":12:26   */\n      pop\n        /* \"AuctionSystem.sol\":3866:4834  function getBidRecordsByItem(uint256 _itemId) public view returns (\r... */\n      pop\n      pop\n      pop\n      swap1\n      pop\n      add\n      dup7\n      dup2\n      sub\n      dup6\n      mstore\n      dup11\n      dup2\n      dup2\n      mload\n      dup2\n      mstore\n      0x20\n      add\n      swap2\n      pop\n      dup1\n      mload\n      swap1\n      0x20\n      add\n      swap1\n      0x20\n      mul\n      dup1\n      dup4\n      dup4\n        /* \"--CODEGEN--\":23:24   */\n      0x0\n        /* \"--CODEGEN--\":8:108   */\n    tag_33:\n        /* \"--CODEGEN--\":33:36   */\n      dup4\n        /* \"--CODEGEN--\":30:31   */\n      dup2\n        /* \"--CODEGEN--\":27:37   */\n      lt\n        /* \"--CODEGEN--\":8:108   */\n      iszero\n      tag_34\n      jumpi\n        /* \"--CODEGEN--\":99:100   */\n      dup1\n        /* \"--CODEGEN--\":94:97   */\n      dup3\n        /* \"--CODEGEN--\":90:101   */\n      add\n        /* \"--CODEGEN--\":84:102   */\n      mload\n        /* \"--CODEGEN--\":80:81   */\n      dup2\n        /* \"--CODEGEN--\":75:78   */\n      dup5\n        /* \"--CODEGEN--\":71:82   */\n      add\n        /* \"--CODEGEN--\":64:103   */\n      mstore\n        /* \"--CODEGEN--\":52:54   */\n      0x20\n        /* \"--CODEGEN--\":49:50   */\n      dup2\n        /* \"--CODEGEN--\":45:55   */\n      add\n        /* \"--CODEGEN--\":40:55   */\n      swap1\n      pop\n        /* \"--CODEGEN--\":8:108   */\n      jump(tag_33)\n    tag_34:\n        /* \"--CODEGEN--\":12:26   */\n      pop\n        /* \"AuctionSystem.sol\":3866:4834  function getBidRecordsByItem(uint256 _itemId) public view returns (\r... */\n      pop\n      pop\n      pop\n      swap1\n      pop\n      add\n      dup7\n      dup2\n      sub\n      dup5\n      mstore\n      dup10\n      dup2\n      dup2\n      mload\n      dup2\n      mstore\n      0x20\n      add\n      swap2\n      pop\n      dup1\n      mload\n      swap1\n      0x20\n      add\n      swap1\n      0x20\n      mul\n      dup1\n      dup4\n      dup4\n        /* \"--CODEGEN--\":23:24   */\n      0x0\n        /* \"--CODEGEN--\":8:108   */\n    tag_36:\n        /* \"--CODEGEN--\":33:36   */\n      dup4\n        /* \"--CODEGEN--\":30:31   */\n      dup2\n        /* \"--CODEGEN--\":27:37   */\n      lt\n        /* \"--CODEGEN--\":8:108   */\n      iszero\n      tag_37\n      jumpi\n        /* \"--CODEGEN--\":99:100   */\n      dup1\n        /* \"--CODEGEN--\":94:97   */\n      dup3\n        /* \"--CODEGEN--\":90:101   */\n      add\n        /* \"--CODEGEN--\":84:102   */\n      mload\n        /* \"--CODEGEN--\":80:81   */\n      dup2\n        /* \"--CODEGEN--\":75:78   */\n      dup5\n        /* \"--CODEGEN--\":71:82   */\n      add\n        /* \"--CODEGEN--\":64:103   */\n      mstore\n        /* \"--CODEGEN--\":52:54   */\n      0x20\n        /* \"--CODEGEN--\":49:50   */\n      dup2\n        /* \"--CODEGEN--\":45:55   */\n      add\n        /* \"--CODEGEN--\":40:55   */\n      swap1\n      pop\n        /* \"--CODEGEN--\":8:108   */\n      jump(tag_36)\n    tag_37:\n        /* \"--CODEGEN--\":12:26   */\n      pop\n        /* \"AuctionSystem.sol\":3866:4834  function getBidRecordsByItem(uint256 _itemId) public view returns (\r... */\n      pop\n      pop\n      pop\n      swap1\n      pop\n      add\n      dup7\n      dup2\n      sub\n      dup4\n      mstore\n      dup9\n      dup2\n      dup2\n      mload\n      dup2\n      mstore\n      0x20\n      add\n      swap2\n      pop\n      dup1\n      mload\n      swap1\n      0x20\n      add\n      swap1\n      0x20\n      mul\n      dup1\n      dup4\n      dup4\n        /* \"--CODEGEN--\":23:24   */\n      0x0\n        /* \"--CODEGEN--\":8:108   */\n    tag_39:\n        /* \"--CODEGEN--\":33:36   */\n      dup4\n        /* \"--CODEGEN--\":30:31   */\n      dup2\n        /* \"--CODEGEN--\":27:37   */\n      lt\n        /* \"--CODEGEN--\":8:108   */\n      iszero\n      tag_40\n      jumpi\n        /* \"--CODEGEN--\":99:100   */\n      dup1\n        /* \"--CODEGEN--\":94:97   */\n      dup3\n        /* \"--CODEGEN--\":90:101   */\n      add\n        /* \"--CODEGEN--\":84:102   */\n      mload\n        /* \"--CODEGEN--\":80:81   */\n      dup2\n        /* \"--CODEGEN--\":75:78   */\n      dup5\n        /* \"--CODEGEN--\":71:82   */\n      add\n        /* \"--CODEGEN--\":64:103   */\n      mstore\n        /* \"--CODEGEN--\":52:54   */\n      0x20\n        /* \"--CODEGEN--\":49:50   */\n      dup2\n        /* \"--CODEGEN--\":45:55   */\n      add\n        /* \"--CODEGEN--\":40:55   */\n      swap1\n      pop\n        /* \"--CODEGEN--\":8:108   */\n      jump(tag_39)\n    tag_40:\n        /* \"--CODEGEN--\":12:26   */\n      pop\n        /* \"AuctionSystem.sol\":3866:4834  function getBidRecordsByItem(uint256 _itemId) public view returns (\r... */\n      pop\n      pop\n      pop\n      swap1\n      pop\n      add\n      dup7\n      dup2\n      sub\n      dup3\n      mstore\n      dup8\n      dup2\n      dup2\n      mload\n      dup2\n      mstore\n      0x20\n      add\n      swap2\n      pop\n      dup1\n      mload\n      swap1\n      0x20\n      add\n      swap1\n      0x20\n      mul\n      dup1\n      dup4\n      dup4\n        /* \"--CODEGEN--\":23:24   */\n      0x0\n        /* \"--CODEGEN--\":8:108   */\n    tag_42:\n        /* \"--CODEGEN--\":33:36   */\n      dup4\n        /* \"--CODEGEN--\":30:31   */\n      dup2\n        /* \"--CODEGEN--\":27:37   */\n      lt\n        /* \"--CODEGEN--\":8:108   */\n      iszero\n      tag_43\n      jumpi\n        /* \"--CODEGEN--\":99:100   */\n      dup1\n        /* \"--CODEGEN--\":94:97   */\n      dup3\n        /* \"--CODEGEN--\":90:101   */\n      add\n        /* \"--CODEGEN--\":84:102   */\n      mload\n        /* \"--CODEGEN--\":80:81   */\n      dup2\n        /* \"--CODEGEN--\":75:78   */\n      dup5\n        /* \"--CODEGEN--\":71:82   */\n      add\n        /* \"--CODEGEN--\":64:103   */\n      mstore\n        /* \"--CODEGEN--\":52:54   */\n      0x20\n        /* \"--CODEGEN--\":49:50   */\n      dup2\n        /* \"--CODEGEN--\":45:55   */\n      add\n        /* \"--CODEGEN--\":40:55   */\n      swap1\n      pop\n        /* \"--CODEGEN--\":8:108   */\n      jump(tag_42)\n    tag_43:\n        /* \"--CODEGEN--\":12:26   */\n      pop\n        /* \"AuctionSystem.sol\":3866:4834  function getBidRecordsByItem(uint256 _itemId) public view returns (\r... */\n      pop\n      pop\n      pop\n      swap1\n      pop\n      add\n      swap11\n      pop\n      pop\n      pop\n      pop\n      pop\n      pop\n      pop\n      pop\n      pop\n      pop\n      pop\n      mload(0x40)\n      dup1\n      swap2\n      sub\n      swap1\n      return\n        /* \"AuctionSystem.sol\":1089:1136  mapping(uint256 => BidRecord) public bidRecords */\n    tag_8:\n      callvalue\n        /* \"--CODEGEN--\":8:17   */\n      dup1\n        /* \"--CODEGEN--\":5:7   */\n      iszero\n      tag_45\n      jumpi\n        /* \"--CODEGEN--\":30:31   */\n      0x0\n        /* \"--CODEGEN--\":27:28   */\n      dup1\n        /* \"--CODEGEN--\":20:32   */\n      revert\n        /* \"--CODEGEN--\":5:7   */\n    tag_45:\n        /* \"AuctionSystem.sol\":1089:1136  mapping(uint256 => BidRecord) public bidRecords */\n      pop\n      tag_46\n      0x4\n      dup1\n      calldatasize\n      sub\n      dup2\n      add\n      swap1\n      dup1\n      dup1\n      calldataload\n      swap1\n      0x20\n      add\n      swap1\n      swap3\n      swap2\n      swap1\n      pop\n      pop\n      pop\n      jump(tag_47)\n    tag_46:\n      mload(0x40)\n      dup1\n      dup8\n      dup2\n      mstore\n      0x20\n      add\n      dup7\n      dup2\n      mstore\n      0x20\n      add\n      dup6\n      dup2\n      mstore\n      0x20\n      add\n      dup5\n      dup2\n      mstore\n      0x20\n      add\n      dup4\n      dup2\n      mstore\n      0x20\n      add\n      dup3\n      iszero\n      iszero\n      iszero\n      iszero\n      dup2\n      mstore\n      0x20\n      add\n      swap7\n      pop\n      pop\n      pop\n      pop\n      pop\n      pop\n      pop\n      mload(0x40)\n      dup1\n      swap2\n      sub\n      swap1\n      return\n        /* \"AuctionSystem.sol\":4979:6056  function getOrdersByUser(uint256 _userId) public view returns (\r... */\n    tag_9:\n      callvalue\n        /* \"--CODEGEN--\":8:17   */\n      dup1\n        /* \"--CODEGEN--\":5:7   */\n      iszero\n      tag_48\n      jumpi\n        /* \"--CODEGEN--\":30:31   */\n      0x0\n        /* \"--CODEGEN--\":27:28   */\n      dup1\n        /* \"--CODEGEN--\":20:32   */\n      revert\n        /* \"--CODEGEN--\":5:7   */\n    tag_48:\n        /* \"AuctionSystem.sol\":4979:6056  function getOrdersByUser(uint256 _userId) public view returns (\r... */\n      pop\n      tag_49\n      0x4\n      dup1\n      calldatasize\n      sub\n      dup2\n      add\n      swap1\n      dup1\n      dup1\n      calldataload\n      swap1\n      0x20\n      add\n      swap1\n      swap3\n      swap2\n      swap1\n      pop\n      pop\n      pop\n      jump(tag_50)\n    tag_49:\n      mload(0x40)\n      dup1\n      dup1\n      0x20\n      add\n      dup1\n      0x20\n      add\n      dup1\n      0x20\n      add\n      dup1\n      0x20\n      add\n      dup1\n      0x20\n      add\n      dup1\n      0x20\n      add\n      dup8\n      dup2\n      sub\n      dup8\n      mstore\n      dup14\n      dup2\n      dup2\n      mload\n      dup2\n      mstore\n      0x20\n      add\n      swap2\n      pop\n      dup1\n      mload\n      swap1\n      0x20\n      add\n      swap1\n      0x20\n      mul\n      dup1\n      dup4\n      dup4\n        /* \"--CODEGEN--\":23:24   */\n      0x0\n        /* \"--CODEGEN--\":8:108   */\n    tag_51:\n        /* \"--CODEGEN--\":33:36   */\n      dup4\n        /* \"--CODEGEN--\":30:31   */\n      dup2\n        /* \"--CODEGEN--\":27:37   */\n      lt\n        /* \"--CODEGEN--\":8:108   */\n      iszero\n      tag_52\n      jumpi\n        /* \"--CODEGEN--\":99:100   */\n      dup1\n        /* \"--CODEGEN--\":94:97   */\n      dup3\n        /* \"--CODEGEN--\":90:101   */\n      add\n        /* \"--CODEGEN--\":84:102   */\n      mload\n        /* \"--CODEGEN--\":80:81   */\n      dup2\n        /* \"--CODEGEN--\":75:78   */\n      dup5\n        /* \"--CODEGEN--\":71:82   */\n      add\n        /* \"--CODEGEN--\":64:103   */\n      mstore\n        /* \"--CODEGEN--\":52:54   */\n      0x20\n        /* \"--CODEGEN--\":49:50   */\n      dup2\n        /* \"--CODEGEN--\":45:55   */\n      add\n        /* \"--CODEGEN--\":40:55   */\n      swap1\n      pop\n        /* \"--CODEGEN--\":8:108   */\n      jump(tag_51)\n    tag_52:\n        /* \"--CODEGEN--\":12:26   */\n      pop\n        /* \"AuctionSystem.sol\":4979:6056  function getOrdersByUser(uint256 _userId) public view returns (\r... */\n      pop\n      pop\n      pop\n      swap1\n      pop\n      add\n      dup8\n      dup2\n      sub\n      dup7\n      mstore\n      dup13\n      dup2\n      dup2\n      mload\n      dup2\n      mstore\n      0x20\n      add\n      swap2\n      pop\n      dup1\n      mload\n      swap1\n      0x20\n      add\n      swap1\n      0x20\n      mul\n      dup1\n      dup4\n      dup4\n        /* \"--CODEGEN--\":23:24   */\n      0x0\n        /* \"--CODEGEN--\":8:108   */\n    tag_54:\n        /* \"--CODEGEN--\":33:36   */\n      dup4\n        /* \"--CODEGEN--\":30:31   */\n      dup2\n        /* \"--CODEGEN--\":27:37   */\n      lt\n        /* \"--CODEGEN--\":8:108   */\n      iszero\n      tag_55\n      jumpi\n        /* \"--CODEGEN--\":99:100   */\n      dup1\n        /* \"--CODEGEN--\":94:97   */\n      dup3\n        /* \"--CODEGEN--\":90:101   */\n      add\n        /* \"--CODEGEN--\":84:102   */\n      mload\n        /* \"--CODEGEN--\":80:81   */\n      dup2\n        /* \"--CODEGEN--\":75:78   */\n      dup5\n        /* \"--CODEGEN--\":71:82   */\n      add\n        /* \"--CODEGEN--\":64:103   */\n      mstore\n        /* \"--CODEGEN--\":52:54   */\n      0x20\n        /* \"--CODEGEN--\":49:50   */\n      dup2\n        /* \"--CODEGEN--\":45:55   */\n      add\n        /* \"--CODEGEN--\":40:55   */\n      swap1\n      pop\n        /* \"--CODEGEN--\":8:108   */\n      jump(tag_54)\n    tag_55:\n        /* \"--CODEGEN--\":12:26   */\n      pop\n        /* \"AuctionSystem.sol\":4979:6056  function getOrdersByUser(uint256 _userId) public view returns (\r... */\n      pop\n      pop\n      pop\n      swap1\n      pop\n      add\n      dup8\n      dup2\n      sub\n      dup6\n      mstore\n      dup12\n      dup2\n      dup2\n      mload\n      dup2\n      mstore\n      0x20\n      add\n      swap2\n      pop\n      dup1\n      mload\n      swap1\n      0x20\n      add\n      swap1\n      0x20\n      mul\n      dup1\n      dup4\n      dup4\n        /* \"--CODEGEN--\":23:24   */\n      0x0\n        /* \"--CODEGEN--\":8:108   */\n    tag_57:\n        /* \"--CODEGEN--\":33:36   */\n      dup4\n        /* \"--CODEGEN--\":30:31   */\n      dup2\n        /* \"--CODEGEN--\":27:37   */\n      lt\n        /* \"--CODEGEN--\":8:108   */\n      iszero\n      tag_58\n      jumpi\n        /* \"--CODEGEN--\":99:100   */\n      dup1\n        /* \"--CODEGEN--\":94:97   */\n      dup3\n        /* \"--CODEGEN--\":90:101   */\n      add\n        /* \"--CODEGEN--\":84:102   */\n      mload\n        /* \"--CODEGEN--\":80:81   */\n      dup2\n        /* \"--CODEGEN--\":75:78   */\n      dup5\n        /* \"--CODEGEN--\":71:82   */\n      add\n        /* \"--CODEGEN--\":64:103   */\n      mstore\n        /* \"--CODEGEN--\":52:54   */\n      0x20\n        /* \"--CODEGEN--\":49:50   */\n      dup2\n        /* \"--CODEGEN--\":45:55   */\n      add\n        /* \"--CODEGEN--\":40:55   */\n      swap1\n      pop\n        /* \"--CODEGEN--\":8:108   */\n      jump(tag_57)\n    tag_58:\n        /* \"--CODEGEN--\":12:26   */\n      pop\n        /* \"AuctionSystem.sol\":4979:6056  function getOrdersByUser(uint256 _userId) public view returns (\r... */\n      pop\n      pop\n      pop\n      swap1\n      pop\n      add\n      dup8\n      dup2\n      sub\n      dup5\n      mstore\n      dup11\n      dup2\n      dup2\n      mload\n      dup2\n      mstore\n      0x20\n      add\n      swap2\n      pop\n      dup1\n      mload\n      swap1\n      0x20\n      add\n      swap1\n      0x20\n      mul\n      dup1\n      dup4\n      dup4\n        /* \"--CODEGEN--\":23:24   */\n      0x0\n        /* \"--CODEGEN--\":8:108   */\n    tag_60:\n        /* \"--CODEGEN--\":33:36   */\n      dup4\n        /* \"--CODEGEN--\":30:31   */\n      dup2\n        /* \"--CODEGEN--\":27:37   */\n      lt\n        /* \"--CODEGEN--\":8:108   */\n      iszero\n      tag_61\n      jumpi\n        /* \"--CODEGEN--\":99:100   */\n      dup1\n        /* \"--CODEGEN--\":94:97   */\n      dup3\n        /* \"--CODEGEN--\":90:101   */\n      add\n        /* \"--CODEGEN--\":84:102   */\n      mload\n        /* \"--CODEGEN--\":80:81   */\n      dup2\n        /* \"--CODEGEN--\":75:78   */\n      dup5\n        /* \"--CODEGEN--\":71:82   */\n      add\n        /* \"--CODEGEN--\":64:103   */\n      mstore\n        /* \"--CODEGEN--\":52:54   */\n      0x20\n        /* \"--CODEGEN--\":49:50   */\n      dup2\n        /* \"--CODEGEN--\":45:55   */\n      add\n        /* \"--CODEGEN--\":40:55   */\n      swap1\n      pop\n        /* \"--CODEGEN--\":8:108   */\n      jump(tag_60)\n    tag_61:\n        /* \"--CODEGEN--\":12:26   */\n      pop\n        /* \"AuctionSystem.sol\":4979:6056  function getOrdersByUser(uint256 _userId) public view returns (\r... */\n      pop\n      pop\n      pop\n      swap1\n      pop\n      add\n      dup8\n      dup2\n      sub\n      dup4\n      mstore\n      dup10\n      dup2\n      dup2\n      mload\n      dup2\n      mstore\n      0x20\n      add\n      swap2\n      pop\n      dup1\n      mload\n      swap1\n      0x20\n      add\n      swap1\n      0x20\n      mul\n      dup1\n      dup4\n      dup4\n        /* \"--CODEGEN--\":23:24   */\n      0x0\n        /* \"--CODEGEN--\":8:108   */\n    tag_63:\n        /* \"--CODEGEN--\":33:36   */\n      dup4\n        /* \"--CODEGEN--\":30:31   */\n      dup2\n        /* \"--CODEGEN--\":27:37   */\n      lt\n        /* \"--CODEGEN--\":8:108   */\n      iszero\n      tag_64\n      jumpi\n        /* \"--CODEGEN--\":99:100   */\n      dup1\n        /* \"--CODEGEN--\":94:97   */\n      dup3\n        /* \"--CODEGEN--\":90:101   */\n      add\n        /* \"--CODEGEN--\":84:102   */\n      mload\n        /* \"--CODEGEN--\":80:81   */\n      dup2\n        /* \"--CODEGEN--\":75:78   */\n      dup5\n        /* \"--CODEGEN--\":71:82   */\n      add\n        /* \"--CODEGEN--\":64:103   */\n      mstore\n        /* \"--CODEGEN--\":52:54   */\n      0x20\n        /* \"--CODEGEN--\":49:50   */\n      dup2\n        /* \"--CODEGEN--\":45:55   */\n      add\n        /* \"--CODEGEN--\":40:55   */\n      swap1\n      pop\n        /* \"--CODEGEN--\":8:108   */\n      jump(tag_63)\n    tag_64:\n        /* \"--CODEGEN--\":12:26   */\n      pop\n        /* \"AuctionSystem.sol\":4979:6056  function getOrdersByUser(uint256 _userId) public view returns (\r... */\n      pop\n      pop\n      pop\n      swap1\n      pop\n      add\n      dup8\n      dup2\n      sub\n      dup3\n      mstore\n      dup9\n      dup2\n      dup2\n      mload\n      dup2\n      mstore\n      0x20\n      add\n      swap2\n      pop\n      dup1\n      mload\n      swap1\n      0x20\n      add\n      swap1\n      0x20\n      mul\n      dup1\n      dup4\n      dup4\n        /* \"--CODEGEN--\":23:24   */\n      0x0\n        /* \"--CODEGEN--\":8:108   */\n    tag_66:\n        /* \"--CODEGEN--\":33:36   */\n      dup4\n        /* \"--CODEGEN--\":30:31   */\n      dup2\n        /* \"--CODEGEN--\":27:37   */\n      lt\n        /* \"--CODEGEN--\":8:108   */\n      iszero\n      tag_67\n      jumpi\n        /* \"--CODEGEN--\":99:100   */\n      dup1\n        /* \"--CODEGEN--\":94:97   */\n      dup3\n        /* \"--CODEGEN--\":90:101   */\n      add\n        /* \"--CODEGEN--\":84:102   */\n      mload\n        /* \"--CODEGEN--\":80:81   */\n      dup2\n        /* \"--CODEGEN--\":75:78   */\n      dup5\n        /* \"--CODEGEN--\":71:82   */\n      add\n        /* \"--CODEGEN--\":64:103   */\n      mstore\n        /* \"--CODEGEN--\":52:54   */\n      0x20\n        /* \"--CODEGEN--\":49:50   */\n      dup2\n        /* \"--CODEGEN--\":45:55   */\n      add\n        /* \"--CODEGEN--\":40:55   */\n      swap1\n      pop\n        /* \"--CODEGEN--\":8:108   */\n      jump(tag_66)\n    tag_67:\n        /* \"--CODEGEN--\":12:26   */\n      pop\n        /* \"AuctionSystem.sol\":4979:6056  function getOrdersByUser(uint256 _userId) public view returns (\r... */\n      pop\n      pop\n      pop\n      swap1\n      pop\n      add\n      swap13\n      pop\n      pop\n      pop\n      pop\n      pop\n      pop\n      pop\n      pop\n      pop\n      pop\n      pop\n      pop\n      pop\n      mload(0x40)\n      dup1\n      swap2\n      sub\n      swap1\n      return\n        /* \"AuctionSystem.sol\":1170:1209  mapping(uint256 => Order) public orders */\n    tag_10:\n      callvalue\n        /* \"--CODEGEN--\":8:17   */\n      dup1\n        /* \"--CODEGEN--\":5:7   */\n      iszero\n      tag_69\n      jumpi\n        /* \"--CODEGEN--\":30:31   */\n      0x0\n        /* \"--CODEGEN--\":27:28   */\n      dup1\n        /* \"--CODEGEN--\":20:32   */\n      revert\n        /* \"--CODEGEN--\":5:7   */\n    tag_69:\n        /* \"AuctionSystem.sol\":1170:1209  mapping(uint256 => Order) public orders */\n      pop\n      tag_70\n      0x4\n      dup1\n      calldatasize\n      sub\n      dup2\n      add\n      swap1\n      dup1\n      dup1\n      calldataload\n      swap1\n      0x20\n      add\n      swap1\n      swap3\n      swap2\n      swap1\n      pop\n      pop\n      pop\n      jump(tag_71)\n    tag_70:\n      mload(0x40)\n      dup1\n      dup9\n      dup2\n      mstore\n      0x20\n      add\n      dup8\n      dup2\n      mstore\n      0x20\n      add\n      dup7\n      dup2\n      mstore\n      0x20\n      add\n      dup6\n      dup2\n      mstore\n      0x20\n      add\n      dup5\n      0xff\n      and\n      0xff\n      and\n      dup2\n      mstore\n      0x20\n      add\n      dup4\n      dup2\n      mstore\n      0x20\n      add\n      dup3\n      iszero\n      iszero\n      iszero\n      iszero\n      dup2\n      mstore\n      0x20\n      add\n      swap8\n      pop\n      pop\n      pop\n      pop\n      pop\n      pop\n      pop\n      pop\n      mload(0x40)\n      dup1\n      swap2\n      sub\n      swap1\n      return\n        /* \"AuctionSystem.sol\":971:1001  uint256 public nextBidRecordId */\n    tag_11:\n      callvalue\n        /* \"--CODEGEN--\":8:17   */\n      dup1\n        /* \"--CODEGEN--\":5:7   */\n      iszero\n      tag_72\n      jumpi\n        /* \"--CODEGEN--\":30:31   */\n      0x0\n        /* \"--CODEGEN--\":27:28   */\n      dup1\n        /* \"--CODEGEN--\":20:32   */\n      revert\n        /* \"--CODEGEN--\":5:7   */\n    tag_72:\n        /* \"AuctionSystem.sol\":971:1001  uint256 public nextBidRecordId */\n      pop\n      tag_73\n      jump(tag_74)\n    tag_73:\n      mload(0x40)\n      dup1\n      dup3\n      dup2\n      mstore\n      0x20\n      add\n      swap2\n      pop\n      pop\n      mload(0x40)\n      dup1\n      swap2\n      sub\n      swap1\n      return\n        /* \"AuctionSystem.sol\":1330:1377  mapping(uint256 => uint256[]) public userOrders */\n    tag_14:\n      mstore(0x20, 0x5)\n      dup2\n      0x0\n      mstore\n      keccak256(0x0, 0x40)\n      dup2\n      dup2\n      sload\n      dup2\n      lt\n      iszero\n      iszero\n      tag_75\n      jumpi\n      invalid\n    tag_75:\n      swap1\n      0x0\n      mstore\n      keccak256(0x0, 0x20)\n      add\n      0x0\n      swap2\n      pop\n      swap2\n      pop\n      pop\n      sload\n      dup2\n      jump\t// out\n        /* \"AuctionSystem.sol\":3072:3678  function recordOrder(uint256 _orderId, uint256 _itemId, uint256 _buyerId, uint256 _dealPrice, uint8 _status, uint256 _updateTime) public {\r... */\n    tag_17:\n        /* \"AuctionSystem.sol\":3220:3238  Order memory order */\n      tag_77\n      jump\t// in(tag_78)\n    tag_77:\n        /* \"AuctionSystem.sol\":3241:3480  Order({\r... */\n      0xe0\n      mload(0x40)\n      swap1\n      dup2\n      add\n      0x40\n      mstore\n      dup1\n        /* \"AuctionSystem.sol\":3266:3274  _orderId */\n      dup9\n        /* \"AuctionSystem.sol\":3241:3480  Order({\r... */\n      dup2\n      mstore\n      0x20\n      add\n        /* \"AuctionSystem.sol\":3297:3304  _itemId */\n      dup8\n        /* \"AuctionSystem.sol\":3241:3480  Order({\r... */\n      dup2\n      mstore\n      0x20\n      add\n        /* \"AuctionSystem.sol\":3328:3336  _buyerId */\n      dup7\n        /* \"AuctionSystem.sol\":3241:3480  Order({\r... */\n      dup2\n      mstore\n      0x20\n      add\n        /* \"AuctionSystem.sol\":3362:3372  _dealPrice */\n      dup6\n        /* \"AuctionSystem.sol\":3241:3480  Order({\r... */\n      dup2\n      mstore\n      0x20\n      add\n        /* \"AuctionSystem.sol\":3395:3402  _status */\n      dup5\n        /* \"AuctionSystem.sol\":3241:3480  Order({\r... */\n      0xff\n      and\n      dup2\n      mstore\n      0x20\n      add\n        /* \"AuctionSystem.sol\":3429:3440  _updateTime */\n      dup4\n        /* \"AuctionSystem.sol\":3241:3480  Order({\r... */\n      dup2\n      mstore\n      0x20\n      add\n        /* \"AuctionSystem.sol\":3464:3468  true */\n      0x1\n        /* \"AuctionSystem.sol\":3241:3480  Order({\r... */\n      iszero\n      iszero\n      dup2\n      mstore\n      pop\n        /* \"AuctionSystem.sol\":3220:3480  Order memory order = Order({\r... */\n      swap1\n      pop\n        /* \"AuctionSystem.sol\":3510:3515  order */\n      dup1\n        /* \"AuctionSystem.sol\":3491:3497  orders */\n      0x3\n        /* \"AuctionSystem.sol\":3491:3507  orders[_orderId] */\n      0x0\n        /* \"AuctionSystem.sol\":3498:3506  _orderId */\n      dup10\n        /* \"AuctionSystem.sol\":3491:3507  orders[_orderId] */\n      dup2\n      mstore\n      0x20\n      add\n      swap1\n      dup2\n      mstore\n      0x20\n      add\n      0x0\n      keccak256\n        /* \"AuctionSystem.sol\":3491:3515  orders[_orderId] = order */\n      0x0\n      dup3\n      add\n      mload\n      dup2\n      0x0\n      add\n      sstore\n      0x20\n      dup3\n      add\n      mload\n      dup2\n      0x1\n      add\n      sstore\n      0x40\n      dup3\n      add\n      mload\n      dup2\n      0x2\n      add\n      sstore\n      0x60\n      dup3\n      add\n      mload\n      dup2\n      0x3\n      add\n      sstore\n      0x80\n      dup3\n      add\n      mload\n      dup2\n      0x4\n      add\n      exp(0x100, 0x0)\n      dup2\n      sload\n      dup2\n      0xff\n      mul\n      not\n      and\n      swap1\n      dup4\n      0xff\n      and\n      mul\n      or\n      swap1\n      sstore\n      pop\n      0xa0\n      dup3\n      add\n      mload\n      dup2\n      0x5\n      add\n      sstore\n      0xc0\n      dup3\n      add\n      mload\n      dup2\n      0x6\n      add\n      exp(0x100, 0x0)\n      dup2\n      sload\n      dup2\n      0xff\n      mul\n      not\n      and\n      swap1\n      dup4\n      iszero\n      iszero\n      mul\n      or\n      swap1\n      sstore\n      pop\n      swap1\n      pop\n      pop\n        /* \"AuctionSystem.sol\":3526:3536  userOrders */\n      0x5\n        /* \"AuctionSystem.sol\":3526:3546  userOrders[_buyerId] */\n      0x0\n        /* \"AuctionSystem.sol\":3537:3545  _buyerId */\n      dup7\n        /* \"AuctionSystem.sol\":3526:3546  userOrders[_buyerId] */\n      dup2\n      mstore\n      0x20\n      add\n      swap1\n      dup2\n      mstore\n      0x20\n      add\n      0x0\n      keccak256\n        /* \"AuctionSystem.sol\":3552:3560  _orderId */\n      dup8\n        /* \"AuctionSystem.sol\":3526:3561  userOrders[_buyerId].push(_orderId) */\n      swap1\n      dup1\n        /* \"--CODEGEN--\":39:40   */\n      0x1\n        /* \"--CODEGEN--\":33:36   */\n      dup2\n        /* \"--CODEGEN--\":27:37   */\n      sload\n        /* \"--CODEGEN--\":23:41   */\n      add\n        /* \"--CODEGEN--\":57:67   */\n      dup1\n        /* \"--CODEGEN--\":52:55   */\n      dup3\n        /* \"--CODEGEN--\":45:68   */\n      sstore\n        /* \"--CODEGEN--\":79:89   */\n      dup1\n        /* \"--CODEGEN--\":72:89   */\n      swap2\n      pop\n        /* \"--CODEGEN--\":0:93   */\n      pop\n        /* \"AuctionSystem.sol\":3526:3561  userOrders[_buyerId].push(_orderId) */\n      swap1\n      0x1\n      dup3\n      sub\n      swap1\n      0x0\n      mstore\n      keccak256(0x0, 0x20)\n      add\n      0x0\n      swap1\n      swap2\n      swap3\n      swap1\n      swap2\n      swap1\n      swap2\n      pop\n      sstore\n      pop\n        /* \"AuctionSystem.sol\":3604:3670  OrderCreated(_orderId, _itemId, _buyerId, _dealPrice, _updateTime) */\n      0x2521a6ea0202bdb001dba7fb1eef0d8a83632c7974c4a84839456147ee95e869\n        /* \"AuctionSystem.sol\":3617:3625  _orderId */\n      dup8\n        /* \"AuctionSystem.sol\":3627:3634  _itemId */\n      dup8\n        /* \"AuctionSystem.sol\":3636:3644  _buyerId */\n      dup8\n        /* \"AuctionSystem.sol\":3646:3656  _dealPrice */\n      dup8\n        /* \"AuctionSystem.sol\":3658:3669  _updateTime */\n      dup7\n        /* \"AuctionSystem.sol\":3604:3670  OrderCreated(_orderId, _itemId, _buyerId, _dealPrice, _updateTime) */\n      mload(0x40)\n      dup1\n      dup7\n      dup2\n      mstore\n      0x20\n      add\n      dup6\n      dup2\n      mstore\n      0x20\n      add\n      dup5\n      dup2\n      mstore\n      0x20\n      add\n      dup4\n      dup2\n      mstore\n      0x20\n      add\n      dup3\n      dup2\n      mstore\n      0x20\n      add\n      swap6\n      pop\n      pop\n      pop\n      pop\n      pop\n      pop\n      mload(0x40)\n      dup1\n      swap2\n      sub\n      swap1\n      log1\n        /* \"AuctionSystem.sol\":3072:3678  function recordOrder(uint256 _orderId, uint256 _itemId, uint256 _buyerId, uint256 _dealPrice, uint8 _status, uint256 _updateTime) public {\r... */\n      pop\n      pop\n      pop\n      pop\n      pop\n      pop\n      pop\n      jump\t// out\n        /* \"AuctionSystem.sol\":1237:1288  mapping(uint256 => uint256[]) public itemBidRecords */\n    tag_20:\n      mstore(0x20, 0x4)\n      dup2\n      0x0\n      mstore\n      keccak256(0x0, 0x40)\n      dup2\n      dup2\n      sload\n      dup2\n      lt\n      iszero\n      iszero\n      tag_81\n      jumpi\n      invalid\n    tag_81:\n      swap1\n      0x0\n      mstore\n      keccak256(0x0, 0x20)\n      add\n      0x0\n      swap2\n      pop\n      swap2\n      pop\n      pop\n      sload\n      dup2\n      jump\t// out\n        /* \"AuctionSystem.sol\":1035:1061  uint256 public nextOrderId */\n    tag_23:\n      sload(0x1)\n      dup2\n      jump\t// out\n        /* \"AuctionSystem.sol\":2158:2761  function recordBid(uint256 _itemId, uint256 _bidderId, uint256 _bidPrice, uint256 _bidTime) public {\r... */\n    tag_26:\n        /* \"AuctionSystem.sol\":2268:2291  BidRecord memory record */\n      tag_83\n      jump\t// in(tag_84)\n    tag_83:\n        /* \"AuctionSystem.sol\":2294:2508  BidRecord({\r... */\n      0xc0\n      mload(0x40)\n      swap1\n      dup2\n      add\n      0x40\n      mstore\n      dup1\n        /* \"AuctionSystem.sol\":2323:2338  nextBidRecordId */\n      sload(0x0)\n        /* \"AuctionSystem.sol\":2294:2508  BidRecord({\r... */\n      dup2\n      mstore\n      0x20\n      add\n        /* \"AuctionSystem.sol\":2361:2368  _itemId */\n      dup7\n        /* \"AuctionSystem.sol\":2294:2508  BidRecord({\r... */\n      dup2\n      mstore\n      0x20\n      add\n        /* \"AuctionSystem.sol\":2393:2402  _bidderId */\n      dup6\n        /* \"AuctionSystem.sol\":2294:2508  BidRecord({\r... */\n      dup2\n      mstore\n      0x20\n      add\n        /* \"AuctionSystem.sol\":2427:2436  _bidPrice */\n      dup5\n        /* \"AuctionSystem.sol\":2294:2508  BidRecord({\r... */\n      dup2\n      mstore\n      0x20\n      add\n        /* \"AuctionSystem.sol\":2460:2468  _bidTime */\n      dup4\n        /* \"AuctionSystem.sol\":2294:2508  BidRecord({\r... */\n      dup2\n      mstore\n      0x20\n      add\n        /* \"AuctionSystem.sol\":2492:2496  true */\n      0x1\n        /* \"AuctionSystem.sol\":2294:2508  BidRecord({\r... */\n      iszero\n      iszero\n      dup2\n      mstore\n      pop\n        /* \"AuctionSystem.sol\":2268:2508  BidRecord memory record = BidRecord({\r... */\n      swap1\n      pop\n        /* \"AuctionSystem.sol\":2549:2555  record */\n      dup1\n        /* \"AuctionSystem.sol\":2519:2529  bidRecords */\n      0x2\n        /* \"AuctionSystem.sol\":2519:2546  bidRecords[nextBidRecordId] */\n      0x0\n        /* \"AuctionSystem.sol\":2530:2545  nextBidRecordId */\n      dup1\n      sload\n        /* \"AuctionSystem.sol\":2519:2546  bidRecords[nextBidRecordId] */\n      dup2\n      mstore\n      0x20\n      add\n      swap1\n      dup2\n      mstore\n      0x20\n      add\n      0x0\n      keccak256\n        /* \"AuctionSystem.sol\":2519:2555  bidRecords[nextBidRecordId] = record */\n      0x0\n      dup3\n      add\n      mload\n      dup2\n      0x0\n      add\n      sstore\n      0x20\n      dup3\n      add\n      mload\n      dup2\n      0x1\n      add\n      sstore\n      0x40\n      dup3\n      add\n      mload\n      dup2\n      0x2\n      add\n      sstore\n      0x60\n      dup3\n      add\n      mload\n      dup2\n      0x3\n      add\n      sstore\n      0x80\n      dup3\n      add\n      mload\n      dup2\n      0x4\n      add\n      sstore\n      0xa0\n      dup3\n      add\n      mload\n      dup2\n      0x5\n      add\n      exp(0x100, 0x0)\n      dup2\n      sload\n      dup2\n      0xff\n      mul\n      not\n      and\n      swap1\n      dup4\n      iszero\n      iszero\n      mul\n      or\n      swap1\n      sstore\n      pop\n      swap1\n      pop\n      pop\n        /* \"AuctionSystem.sol\":2566:2580  itemBidRecords */\n      0x4\n        /* \"AuctionSystem.sol\":2566:2589  itemBidRecords[_itemId] */\n      0x0\n        /* \"AuctionSystem.sol\":2581:2588  _itemId */\n      dup7\n        /* \"AuctionSystem.sol\":2566:2589  itemBidRecords[_itemId] */\n      dup2\n      mstore\n      0x20\n      add\n      swap1\n      dup2\n      mstore\n      0x20\n      add\n      0x0\n      keccak256\n        /* \"AuctionSystem.sol\":2595:2610  nextBidRecordId */\n      sload(0x0)\n        /* \"AuctionSystem.sol\":2566:2611  itemBidRecords[_itemId].push(nextBidRecordId) */\n      swap1\n      dup1\n        /* \"--CODEGEN--\":39:40   */\n      0x1\n        /* \"--CODEGEN--\":33:36   */\n      dup2\n        /* \"--CODEGEN--\":27:37   */\n      sload\n        /* \"--CODEGEN--\":23:41   */\n      add\n        /* \"--CODEGEN--\":57:67   */\n      dup1\n        /* \"--CODEGEN--\":52:55   */\n      dup3\n        /* \"--CODEGEN--\":45:68   */\n      sstore\n        /* \"--CODEGEN--\":79:89   */\n      dup1\n        /* \"--CODEGEN--\":72:89   */\n      swap2\n      pop\n        /* \"--CODEGEN--\":0:93   */\n      pop\n        /* \"AuctionSystem.sol\":2566:2611  itemBidRecords[_itemId].push(nextBidRecordId) */\n      swap1\n      0x1\n      dup3\n      sub\n      swap1\n      0x0\n      mstore\n      keccak256(0x0, 0x20)\n      add\n      0x0\n      swap1\n      swap2\n      swap3\n      swap1\n      swap2\n      swap1\n      swap2\n      pop\n      sstore\n      pop\n        /* \"AuctionSystem.sol\":2658:2725  BidPlaced(nextBidRecordId, _itemId, _bidderId, _bidPrice, _bidTime) */\n      0x58d410dc1370a220fa6d06b24c35ae795427433dcaed19cfc32cc56b77dfba42\n        /* \"AuctionSystem.sol\":2668:2683  nextBidRecordId */\n      sload(0x0)\n        /* \"AuctionSystem.sol\":2685:2692  _itemId */\n      dup7\n        /* \"AuctionSystem.sol\":2694:2703  _bidderId */\n      dup7\n        /* \"AuctionSystem.sol\":2705:2714  _bidPrice */\n      dup7\n        /* \"AuctionSystem.sol\":2716:2724  _bidTime */\n      dup7\n        /* \"AuctionSystem.sol\":2658:2725  BidPlaced(nextBidRecordId, _itemId, _bidderId, _bidPrice, _bidTime) */\n      mload(0x40)\n      dup1\n      dup7\n      dup2\n      mstore\n      0x20\n      add\n      dup6\n      dup2\n      mstore\n      0x20\n      add\n      dup5\n      dup2\n      mstore\n      0x20\n      add\n      dup4\n      dup2\n      mstore\n      0x20\n      add\n      dup3\n      dup2\n      mstore\n      0x20\n      add\n      swap6\n      pop\n      pop\n      pop\n      pop\n      pop\n      pop\n      mload(0x40)\n      dup1\n      swap2\n      sub\n      swap1\n      log1\n        /* \"AuctionSystem.sol\":2736:2751  nextBidRecordId */\n      0x0\n      dup1\n        /* \"AuctionSystem.sol\":2736:2753  nextBidRecordId++ */\n      dup2\n      sload\n      dup1\n      swap3\n      swap2\n      swap1\n      0x1\n      add\n      swap2\n      swap1\n      pop\n      sstore\n      pop\n        /* \"AuctionSystem.sol\":2158:2761  function recordBid(uint256 _itemId, uint256 _bidderId, uint256 _bidPrice, uint256 _bidTime) public {\r... */\n      pop\n      pop\n      pop\n      pop\n      pop\n      jump\t// out\n        /* \"AuctionSystem.sol\":3866:4834  function getBidRecordsByItem(uint256 _itemId) public view returns (\r... */\n    tag_29:\n        /* \"AuctionSystem.sol\":3943:3956  uint256[] ids */\n      0x60\n        /* \"AuctionSystem.sol\":3967:3984  uint256[] itemIds */\n      dup1\n        /* \"AuctionSystem.sol\":3995:4014  uint256[] bidderIds */\n      0x60\n        /* \"AuctionSystem.sol\":4025:4044  uint256[] bidPrices */\n      dup1\n        /* \"AuctionSystem.sol\":4055:4073  uint256[] bidTimes */\n      0x60\n        /* \"AuctionSystem.sol\":4092:4119  uint256[] storage recordIds */\n      0x0\n        /* \"AuctionSystem.sol\":4156:4170  uint256 length */\n      dup1\n        /* \"AuctionSystem.sol\":4436:4445  uint256 i */\n      0x0\n        /* \"AuctionSystem.sol\":4483:4507  BidRecord storage record */\n      dup1\n        /* \"AuctionSystem.sol\":4122:4136  itemBidRecords */\n      0x4\n        /* \"AuctionSystem.sol\":4122:4145  itemBidRecords[_itemId] */\n      0x0\n        /* \"AuctionSystem.sol\":4137:4144  _itemId */\n      dup12\n        /* \"AuctionSystem.sol\":4122:4145  itemBidRecords[_itemId] */\n      dup2\n      mstore\n      0x20\n      add\n      swap1\n      dup2\n      mstore\n      0x20\n      add\n      0x0\n      keccak256\n        /* \"AuctionSystem.sol\":4092:4145  uint256[] storage recordIds = itemBidRecords[_itemId] */\n      swap4\n      pop\n        /* \"AuctionSystem.sol\":4173:4182  recordIds */\n      dup4\n        /* \"AuctionSystem.sol\":4173:4189  recordIds.length */\n      dup1\n      sload\n      swap1\n      pop\n        /* \"AuctionSystem.sol\":4156:4189  uint256 length = recordIds.length */\n      swap3\n      pop\n        /* \"AuctionSystem.sol\":4230:4236  length */\n      dup3\n        /* \"AuctionSystem.sol\":4216:4237  new uint256[](length) */\n      mload(0x40)\n      swap1\n      dup1\n      dup3\n      mstore\n      dup1\n      0x20\n      mul\n      0x20\n      add\n      dup3\n      add\n      0x40\n      mstore\n      dup1\n      iszero\n      tag_88\n      jumpi\n      dup2\n      0x20\n      add\n        /* \"--CODEGEN--\":29:31   */\n      0x20\n        /* \"--CODEGEN--\":21:27   */\n      dup3\n        /* \"--CODEGEN--\":17:32   */\n      mul\n        /* \"--CODEGEN--\":117:121   */\n      dup1\n        /* \"--CODEGEN--\":105:115   */\n      codesize\n        /* \"--CODEGEN--\":97:103   */\n      dup4\n        /* \"--CODEGEN--\":88:122   */\n      codecopy\n        /* \"--CODEGEN--\":148:152   */\n      dup1\n        /* \"--CODEGEN--\":140:146   */\n      dup3\n        /* \"--CODEGEN--\":136:153   */\n      add\n        /* \"--CODEGEN--\":126:153   */\n      swap2\n      pop\n        /* \"--CODEGEN--\":0:157   */\n      pop\n        /* \"AuctionSystem.sol\":4216:4237  new uint256[](length) */\n      swap1\n      pop\n    tag_88:\n      pop\n        /* \"AuctionSystem.sol\":4210:4237  ids = new uint256[](length) */\n      swap9\n      pop\n        /* \"AuctionSystem.sol\":4272:4278  length */\n      dup3\n        /* \"AuctionSystem.sol\":4258:4279  new uint256[](length) */\n      mload(0x40)\n      swap1\n      dup1\n      dup3\n      mstore\n      dup1\n      0x20\n      mul\n      0x20\n      add\n      dup3\n      add\n      0x40\n      mstore\n      dup1\n      iszero\n      tag_89\n      jumpi\n      dup2\n      0x20\n      add\n        /* \"--CODEGEN--\":29:31   */\n      0x20\n        /* \"--CODEGEN--\":21:27   */\n      dup3\n        /* \"--CODEGEN--\":17:32   */\n      mul\n        /* \"--CODEGEN--\":117:121   */\n      dup1\n        /* \"--CODEGEN--\":105:115   */\n      codesize\n        /* \"--CODEGEN--\":97:103   */\n      dup4\n        /* \"--CODEGEN--\":88:122   */\n      codecopy\n        /* \"--CODEGEN--\":148:152   */\n      dup1\n        /* \"--CODEGEN--\":140:146   */\n      dup3\n        /* \"--CODEGEN--\":136:153   */\n      add\n        /* \"--CODEGEN--\":126:153   */\n      swap2\n      pop\n        /* \"--CODEGEN--\":0:157   */\n      pop\n        /* \"AuctionSystem.sol\":4258:4279  new uint256[](length) */\n      swap1\n      pop\n    tag_89:\n      pop\n        /* \"AuctionSystem.sol\":4248:4279  itemIds = new uint256[](length) */\n      swap8\n      pop\n        /* \"AuctionSystem.sol\":4316:4322  length */\n      dup3\n        /* \"AuctionSystem.sol\":4302:4323  new uint256[](length) */\n      mload(0x40)\n      swap1\n      dup1\n      dup3\n      mstore\n      dup1\n      0x20\n      mul\n      0x20\n      add\n      dup3\n      add\n      0x40\n      mstore\n      dup1\n      iszero\n      tag_90\n      jumpi\n      dup2\n      0x20\n      add\n        /* \"--CODEGEN--\":29:31   */\n      0x20\n        /* \"--CODEGEN--\":21:27   */\n      dup3\n        /* \"--CODEGEN--\":17:32   */\n      mul\n        /* \"--CODEGEN--\":117:121   */\n      dup1\n        /* \"--CODEGEN--\":105:115   */\n      codesize\n        /* \"--CODEGEN--\":97:103   */\n      dup4\n        /* \"--CODEGEN--\":88:122   */\n      codecopy\n        /* \"--CODEGEN--\":148:152   */\n      dup1\n        /* \"--CODEGEN--\":140:146   */\n      dup3\n        /* \"--CODEGEN--\":136:153   */\n      add\n        /* \"--CODEGEN--\":126:153   */\n      swap2\n      pop\n        /* \"--CODEGEN--\":0:157   */\n      pop\n        /* \"AuctionSystem.sol\":4302:4323  new uint256[](length) */\n      swap1\n      pop\n    tag_90:\n      pop\n        /* \"AuctionSystem.sol\":4290:4323  bidderIds = new uint256[](length) */\n      swap7\n      pop\n        /* \"AuctionSystem.sol\":4360:4366  length */\n      dup3\n        /* \"AuctionSystem.sol\":4346:4367  new uint256[](length) */\n      mload(0x40)\n      swap1\n      dup1\n      dup3\n      mstore\n      dup1\n      0x20\n      mul\n      0x20\n      add\n      dup3\n      add\n      0x40\n      mstore\n      dup1\n      iszero\n      tag_91\n      jumpi\n      dup2\n      0x20\n      add\n        /* \"--CODEGEN--\":29:31   */\n      0x20\n        /* \"--CODEGEN--\":21:27   */\n      dup3\n        /* \"--CODEGEN--\":17:32   */\n      mul\n        /* \"--CODEGEN--\":117:121   */\n      dup1\n        /* \"--CODEGEN--\":105:115   */\n      codesize\n        /* \"--CODEGEN--\":97:103   */\n      dup4\n        /* \"--CODEGEN--\":88:122   */\n      codecopy\n        /* \"--CODEGEN--\":148:152   */\n      dup1\n        /* \"--CODEGEN--\":140:146   */\n      dup3\n        /* \"--CODEGEN--\":136:153   */\n      add\n        /* \"--CODEGEN--\":126:153   */\n      swap2\n      pop\n        /* \"--CODEGEN--\":0:157   */\n      pop\n        /* \"AuctionSystem.sol\":4346:4367  new uint256[](length) */\n      swap1\n      pop\n    tag_91:\n      pop\n        /* \"AuctionSystem.sol\":4334:4367  bidPrices = new uint256[](length) */\n      swap6\n      pop\n        /* \"AuctionSystem.sol\":4403:4409  length */\n      dup3\n        /* \"AuctionSystem.sol\":4389:4410  new uint256[](length) */\n      mload(0x40)\n      swap1\n      dup1\n      dup3\n      mstore\n      dup1\n      0x20\n      mul\n      0x20\n      add\n      dup3\n      add\n      0x40\n      mstore\n      dup1\n      iszero\n      tag_92\n      jumpi\n      dup2\n      0x20\n      add\n        /* \"--CODEGEN--\":29:31   */\n      0x20\n        /* \"--CODEGEN--\":21:27   */\n      dup3\n        /* \"--CODEGEN--\":17:32   */\n      mul\n        /* \"--CODEGEN--\":117:121   */\n      dup1\n        /* \"--CODEGEN--\":105:115   */\n      codesize\n        /* \"--CODEGEN--\":97:103   */\n      dup4\n        /* \"--CODEGEN--\":88:122   */\n      codecopy\n        /* \"--CODEGEN--\":148:152   */\n      dup1\n        /* \"--CODEGEN--\":140:146   */\n      dup3\n        /* \"--CODEGEN--\":136:153   */\n      add\n        /* \"--CODEGEN--\":126:153   */\n      swap2\n      pop\n        /* \"--CODEGEN--\":0:157   */\n      pop\n        /* \"AuctionSystem.sol\":4389:4410  new uint256[](length) */\n      swap1\n      pop\n    tag_92:\n      pop\n        /* \"AuctionSystem.sol\":4378:4410  bidTimes = new uint256[](length) */\n      swap5\n      pop\n        /* \"AuctionSystem.sol\":4448:4449  0 */\n      0x0\n        /* \"AuctionSystem.sol\":4436:4449  uint256 i = 0 */\n      swap2\n      pop\n        /* \"AuctionSystem.sol\":4431:4753  for (uint256 i = 0; i < length; i++) {\r... */\n    tag_93:\n        /* \"AuctionSystem.sol\":4455:4461  length */\n      dup3\n        /* \"AuctionSystem.sol\":4451:4452  i */\n      dup3\n        /* \"AuctionSystem.sol\":4451:4461  i < length */\n      lt\n        /* \"AuctionSystem.sol\":4431:4753  for (uint256 i = 0; i < length; i++) {\r... */\n      iszero\n      tag_94\n      jumpi\n        /* \"AuctionSystem.sol\":4510:4520  bidRecords */\n      0x2\n        /* \"AuctionSystem.sol\":4510:4534  bidRecords[recordIds[i]] */\n      0x0\n        /* \"AuctionSystem.sol\":4521:4530  recordIds */\n      dup6\n        /* \"AuctionSystem.sol\":4531:4532  i */\n      dup5\n        /* \"AuctionSystem.sol\":4521:4533  recordIds[i] */\n      dup2\n      sload\n      dup2\n      lt\n      iszero\n      iszero\n      tag_96\n      jumpi\n      invalid\n    tag_96:\n      swap1\n      0x0\n      mstore\n      keccak256(0x0, 0x20)\n      add\n      sload\n        /* \"AuctionSystem.sol\":4510:4534  bidRecords[recordIds[i]] */\n      dup2\n      mstore\n      0x20\n      add\n      swap1\n      dup2\n      mstore\n      0x20\n      add\n      0x0\n      keccak256\n        /* \"AuctionSystem.sol\":4483:4534  BidRecord storage record = bidRecords[recordIds[i]] */\n      swap1\n      pop\n        /* \"AuctionSystem.sol\":4558:4564  record */\n      dup1\n        /* \"AuctionSystem.sol\":4558:4567  record.id */\n      0x0\n      add\n      sload\n        /* \"AuctionSystem.sol\":4549:4552  ids */\n      dup10\n        /* \"AuctionSystem.sol\":4553:4554  i */\n      dup4\n        /* \"AuctionSystem.sol\":4549:4555  ids[i] */\n      dup2\n      mload\n      dup2\n      lt\n      iszero\n      iszero\n      tag_98\n      jumpi\n      invalid\n    tag_98:\n      swap1\n      0x20\n      add\n      swap1\n      0x20\n      mul\n      add\n        /* \"AuctionSystem.sol\":4549:4567  ids[i] = record.id */\n      dup2\n      dup2\n      mstore\n      pop\n      pop\n        /* \"AuctionSystem.sol\":4595:4601  record */\n      dup1\n        /* \"AuctionSystem.sol\":4595:4608  record.itemId */\n      0x1\n      add\n      sload\n        /* \"AuctionSystem.sol\":4582:4589  itemIds */\n      dup9\n        /* \"AuctionSystem.sol\":4590:4591  i */\n      dup4\n        /* \"AuctionSystem.sol\":4582:4592  itemIds[i] */\n      dup2\n      mload\n      dup2\n      lt\n      iszero\n      iszero\n      tag_99\n      jumpi\n      invalid\n    tag_99:\n      swap1\n      0x20\n      add\n      swap1\n      0x20\n      mul\n      add\n        /* \"AuctionSystem.sol\":4582:4608  itemIds[i] = record.itemId */\n      dup2\n      dup2\n      mstore\n      pop\n      pop\n        /* \"AuctionSystem.sol\":4638:4644  record */\n      dup1\n        /* \"AuctionSystem.sol\":4638:4653  record.bidderId */\n      0x2\n      add\n      sload\n        /* \"AuctionSystem.sol\":4623:4632  bidderIds */\n      dup8\n        /* \"AuctionSystem.sol\":4633:4634  i */\n      dup4\n        /* \"AuctionSystem.sol\":4623:4635  bidderIds[i] */\n      dup2\n      mload\n      dup2\n      lt\n      iszero\n      iszero\n      tag_100\n      jumpi\n      invalid\n    tag_100:\n      swap1\n      0x20\n      add\n      swap1\n      0x20\n      mul\n      add\n        /* \"AuctionSystem.sol\":4623:4653  bidderIds[i] = record.bidderId */\n      dup2\n      dup2\n      mstore\n      pop\n      pop\n        /* \"AuctionSystem.sol\":4683:4689  record */\n      dup1\n        /* \"AuctionSystem.sol\":4683:4698  record.bidPrice */\n      0x3\n      add\n      sload\n        /* \"AuctionSystem.sol\":4668:4677  bidPrices */\n      dup7\n        /* \"AuctionSystem.sol\":4678:4679  i */\n      dup4\n        /* \"AuctionSystem.sol\":4668:4680  bidPrices[i] */\n      dup2\n      mload\n      dup2\n      lt\n      iszero\n      iszero\n      tag_101\n      jumpi\n      invalid\n    tag_101:\n      swap1\n      0x20\n      add\n      swap1\n      0x20\n      mul\n      add\n        /* \"AuctionSystem.sol\":4668:4698  bidPrices[i] = record.bidPrice */\n      dup2\n      dup2\n      mstore\n      pop\n      pop\n        /* \"AuctionSystem.sol\":4727:4733  record */\n      dup1\n        /* \"AuctionSystem.sol\":4727:4741  record.bidTime */\n      0x4\n      add\n      sload\n        /* \"AuctionSystem.sol\":4713:4721  bidTimes */\n      dup6\n        /* \"AuctionSystem.sol\":4722:4723  i */\n      dup4\n        /* \"AuctionSystem.sol\":4713:4724  bidTimes[i] */\n      dup2\n      mload\n      dup2\n      lt\n      iszero\n      iszero\n      tag_102\n      jumpi\n      invalid\n    tag_102:\n      swap1\n      0x20\n      add\n      swap1\n      0x20\n      mul\n      add\n        /* \"AuctionSystem.sol\":4713:4741  bidTimes[i] = record.bidTime */\n      dup2\n      dup2\n      mstore\n      pop\n      pop\n        /* \"AuctionSystem.sol\":4463:4466  i++ */\n      dup2\n      dup1\n      0x1\n      add\n      swap3\n      pop\n      pop\n        /* \"AuctionSystem.sol\":4431:4753  for (uint256 i = 0; i < length; i++) {\r... */\n      jump(tag_93)\n    tag_94:\n        /* \"AuctionSystem.sol\":4781:4784  ids */\n      dup9\n        /* \"AuctionSystem.sol\":4786:4793  itemIds */\n      dup9\n        /* \"AuctionSystem.sol\":4795:4804  bidderIds */\n      dup9\n        /* \"AuctionSystem.sol\":4806:4815  bidPrices */\n      dup9\n        /* \"AuctionSystem.sol\":4817:4825  bidTimes */\n      dup9\n        /* \"AuctionSystem.sol\":4773:4826  return (ids, itemIds, bidderIds, bidPrices, bidTimes) */\n      swap9\n      pop\n      swap9\n      pop\n      swap9\n      pop\n      swap9\n      pop\n      swap9\n      pop\n        /* \"AuctionSystem.sol\":3866:4834  function getBidRecordsByItem(uint256 _itemId) public view returns (\r... */\n      pop\n      pop\n      pop\n      pop\n      swap2\n      swap4\n      swap6\n      swap1\n      swap3\n      swap5\n      pop\n      jump\t// out\n        /* \"AuctionSystem.sol\":1089:1136  mapping(uint256 => BidRecord) public bidRecords */\n    tag_47:\n      mstore(0x20, 0x2)\n      dup1\n      0x0\n      mstore\n      keccak256(0x0, 0x40)\n      0x0\n      swap2\n      pop\n      swap1\n      pop\n      dup1\n      0x0\n      add\n      sload\n      swap1\n      dup1\n      0x1\n      add\n      sload\n      swap1\n      dup1\n      0x2\n      add\n      sload\n      swap1\n      dup1\n      0x3\n      add\n      sload\n      swap1\n      dup1\n      0x4\n      add\n      sload\n      swap1\n      dup1\n      0x5\n      add\n      0x0\n      swap1\n      sload\n      swap1\n      0x100\n      exp\n      swap1\n      div\n      0xff\n      and\n      swap1\n      pop\n      dup7\n      jump\t// out\n        /* \"AuctionSystem.sol\":4979:6056  function getOrdersByUser(uint256 _userId) public view returns (\r... */\n    tag_50:\n        /* \"AuctionSystem.sol\":5052:5065  uint256[] ids */\n      0x60\n        /* \"AuctionSystem.sol\":5076:5093  uint256[] itemIds */\n      dup1\n        /* \"AuctionSystem.sol\":5104:5122  uint256[] buyerIds */\n      0x60\n        /* \"AuctionSystem.sol\":5133:5153  uint256[] dealPrices */\n      dup1\n        /* \"AuctionSystem.sol\":5164:5180  uint8[] statuses */\n      0x60\n        /* \"AuctionSystem.sol\":5191:5212  uint256[] updateTimes */\n      dup1\n        /* \"AuctionSystem.sol\":5231:5257  uint256[] storage orderIds */\n      0x0\n        /* \"AuctionSystem.sol\":5290:5304  uint256 length */\n      dup1\n        /* \"AuctionSystem.sol\":5613:5622  uint256 i */\n      0x0\n        /* \"AuctionSystem.sol\":5660:5679  Order storage order */\n      dup1\n        /* \"AuctionSystem.sol\":5260:5270  userOrders */\n      0x5\n        /* \"AuctionSystem.sol\":5260:5279  userOrders[_userId] */\n      0x0\n        /* \"AuctionSystem.sol\":5271:5278  _userId */\n      dup13\n        /* \"AuctionSystem.sol\":5260:5279  userOrders[_userId] */\n      dup2\n      mstore\n      0x20\n      add\n      swap1\n      dup2\n      mstore\n      0x20\n      add\n      0x0\n      keccak256\n        /* \"AuctionSystem.sol\":5231:5279  uint256[] storage orderIds = userOrders[_userId] */\n      swap4\n      pop\n        /* \"AuctionSystem.sol\":5307:5315  orderIds */\n      dup4\n        /* \"AuctionSystem.sol\":5307:5322  orderIds.length */\n      dup1\n      sload\n      swap1\n      pop\n        /* \"AuctionSystem.sol\":5290:5322  uint256 length = orderIds.length */\n      swap3\n      pop\n        /* \"AuctionSystem.sol\":5363:5369  length */\n      dup3\n        /* \"AuctionSystem.sol\":5349:5370  new uint256[](length) */\n      mload(0x40)\n      swap1\n      dup1\n      dup3\n      mstore\n      dup1\n      0x20\n      mul\n      0x20\n      add\n      dup3\n      add\n      0x40\n      mstore\n      dup1\n      iszero\n      tag_104\n      jumpi\n      dup2\n      0x20\n      add\n        /* \"--CODEGEN--\":29:31   */\n      0x20\n        /* \"--CODEGEN--\":21:27   */\n      dup3\n        /* \"--CODEGEN--\":17:32   */\n      mul\n        /* \"--CODEGEN--\":117:121   */\n      dup1\n        /* \"--CODEGEN--\":105:115   */\n      codesize\n        /* \"--CODEGEN--\":97:103   */\n      dup4\n        /* \"--CODEGEN--\":88:122   */\n      codecopy\n        /* \"--CODEGEN--\":148:152   */\n      dup1\n        /* \"--CODEGEN--\":140:146   */\n      dup3\n        /* \"--CODEGEN--\":136:153   */\n      add\n        /* \"--CODEGEN--\":126:153   */\n      swap2\n      pop\n        /* \"--CODEGEN--\":0:157   */\n      pop\n        /* \"AuctionSystem.sol\":5349:5370  new uint256[](length) */\n      swap1\n      pop\n    tag_104:\n      pop\n        /* \"AuctionSystem.sol\":5343:5370  ids = new uint256[](length) */\n      swap10\n      pop\n        /* \"AuctionSystem.sol\":5405:5411  length */\n      dup3\n        /* \"AuctionSystem.sol\":5391:5412  new uint256[](length) */\n      mload(0x40)\n      swap1\n      dup1\n      dup3\n      mstore\n      dup1\n      0x20\n      mul\n      0x20\n      add\n      dup3\n      add\n      0x40\n      mstore\n      dup1\n      iszero\n      tag_105\n      jumpi\n      dup2\n      0x20\n      add\n        /* \"--CODEGEN--\":29:31   */\n      0x20\n        /* \"--CODEGEN--\":21:27   */\n      dup3\n        /* \"--CODEGEN--\":17:32   */\n      mul\n        /* \"--CODEGEN--\":117:121   */\n      dup1\n        /* \"--CODEGEN--\":105:115   */\n      codesize\n        /* \"--CODEGEN--\":97:103   */\n      dup4\n        /* \"--CODEGEN--\":88:122   */\n      codecopy\n        /* \"--CODEGEN--\":148:152   */\n      dup1\n        /* \"--CODEGEN--\":140:146   */\n      dup3\n        /* \"--CODEGEN--\":136:153   */\n      add\n        /* \"--CODEGEN--\":126:153   */\n      swap2\n      pop\n        /* \"--CODEGEN--\":0:157   */\n      pop\n        /* \"AuctionSystem.sol\":5391:5412  new uint256[](length) */\n      swap1\n      pop\n    tag_105:\n      pop\n        /* \"AuctionSystem.sol\":5381:5412  itemIds = new uint256[](length) */\n      swap9\n      pop\n        /* \"AuctionSystem.sol\":5448:5454  length */\n      dup3\n        /* \"AuctionSystem.sol\":5434:5455  new uint256[](length) */\n      mload(0x40)\n      swap1\n      dup1\n      dup3\n      mstore\n      dup1\n      0x20\n      mul\n      0x20\n      add\n      dup3\n      add\n      0x40\n      mstore\n      dup1\n      iszero\n      tag_106\n      jumpi\n      dup2\n      0x20\n      add\n        /* \"--CODEGEN--\":29:31   */\n      0x20\n        /* \"--CODEGEN--\":21:27   */\n      dup3\n        /* \"--CODEGEN--\":17:32   */\n      mul\n        /* \"--CODEGEN--\":117:121   */\n      dup1\n        /* \"--CODEGEN--\":105:115   */\n      codesize\n        /* \"--CODEGEN--\":97:103   */\n      dup4\n        /* \"--CODEGEN--\":88:122   */\n      codecopy\n        /* \"--CODEGEN--\":148:152   */\n      dup1\n        /* \"--CODEGEN--\":140:146   */\n      dup3\n        /* \"--CODEGEN--\":136:153   */\n      add\n        /* \"--CODEGEN--\":126:153   */\n      swap2\n      pop\n        /* \"--CODEGEN--\":0:157   */\n      pop\n        /* \"AuctionSystem.sol\":5434:5455  new uint256[](length) */\n      swap1\n      pop\n    tag_106:\n      pop\n        /* \"AuctionSystem.sol\":5423:5455  buyerIds = new uint256[](length) */\n      swap8\n      pop\n        /* \"AuctionSystem.sol\":5493:5499  length */\n      dup3\n        /* \"AuctionSystem.sol\":5479:5500  new uint256[](length) */\n      mload(0x40)\n      swap1\n      dup1\n      dup3\n      mstore\n      dup1\n      0x20\n      mul\n      0x20\n      add\n      dup3\n      add\n      0x40\n      mstore\n      dup1\n      iszero\n      tag_107\n      jumpi\n      dup2\n      0x20\n      add\n        /* \"--CODEGEN--\":29:31   */\n      0x20\n        /* \"--CODEGEN--\":21:27   */\n      dup3\n        /* \"--CODEGEN--\":17:32   */\n      mul\n        /* \"--CODEGEN--\":117:121   */\n      dup1\n        /* \"--CODEGEN--\":105:115   */\n      codesize\n        /* \"--CODEGEN--\":97:103   */\n      dup4\n        /* \"--CODEGEN--\":88:122   */\n      codecopy\n        /* \"--CODEGEN--\":148:152   */\n      dup1\n        /* \"--CODEGEN--\":140:146   */\n      dup3\n        /* \"--CODEGEN--\":136:153   */\n      add\n        /* \"--CODEGEN--\":126:153   */\n      swap2\n      pop\n        /* \"--CODEGEN--\":0:157   */\n      pop\n        /* \"AuctionSystem.sol\":5479:5500  new uint256[](length) */\n      swap1\n      pop\n    tag_107:\n      pop\n        /* \"AuctionSystem.sol\":5466:5500  dealPrices = new uint256[](length) */\n      swap7\n      pop\n        /* \"AuctionSystem.sol\":5534:5540  length */\n      dup3\n        /* \"AuctionSystem.sol\":5522:5541  new uint8[](length) */\n      mload(0x40)\n      swap1\n      dup1\n      dup3\n      mstore\n      dup1\n      0x20\n      mul\n      0x20\n      add\n      dup3\n      add\n      0x40\n      mstore\n      dup1\n      iszero\n      tag_108\n      jumpi\n      dup2\n      0x20\n      add\n        /* \"--CODEGEN--\":29:31   */\n      0x20\n        /* \"--CODEGEN--\":21:27   */\n      dup3\n        /* \"--CODEGEN--\":17:32   */\n      mul\n        /* \"--CODEGEN--\":117:121   */\n      dup1\n        /* \"--CODEGEN--\":105:115   */\n      codesize\n        /* \"--CODEGEN--\":97:103   */\n      dup4\n        /* \"--CODEGEN--\":88:122   */\n      codecopy\n        /* \"--CODEGEN--\":148:152   */\n      dup1\n        /* \"--CODEGEN--\":140:146   */\n      dup3\n        /* \"--CODEGEN--\":136:153   */\n      add\n        /* \"--CODEGEN--\":126:153   */\n      swap2\n      pop\n        /* \"--CODEGEN--\":0:157   */\n      pop\n        /* \"AuctionSystem.sol\":5522:5541  new uint8[](length) */\n      swap1\n      pop\n    tag_108:\n      pop\n        /* \"AuctionSystem.sol\":5511:5541  statuses = new uint8[](length) */\n      swap6\n      pop\n        /* \"AuctionSystem.sol\":5580:5586  length */\n      dup3\n        /* \"AuctionSystem.sol\":5566:5587  new uint256[](length) */\n      mload(0x40)\n      swap1\n      dup1\n      dup3\n      mstore\n      dup1\n      0x20\n      mul\n      0x20\n      add\n      dup3\n      add\n      0x40\n      mstore\n      dup1\n      iszero\n      tag_109\n      jumpi\n      dup2\n      0x20\n      add\n        /* \"--CODEGEN--\":29:31   */\n      0x20\n        /* \"--CODEGEN--\":21:27   */\n      dup3\n        /* \"--CODEGEN--\":17:32   */\n      mul\n        /* \"--CODEGEN--\":117:121   */\n      dup1\n        /* \"--CODEGEN--\":105:115   */\n      codesize\n        /* \"--CODEGEN--\":97:103   */\n      dup4\n        /* \"--CODEGEN--\":88:122   */\n      codecopy\n        /* \"--CODEGEN--\":148:152   */\n      dup1\n        /* \"--CODEGEN--\":140:146   */\n      dup3\n        /* \"--CODEGEN--\":136:153   */\n      add\n        /* \"--CODEGEN--\":126:153   */\n      swap2\n      pop\n        /* \"--CODEGEN--\":0:157   */\n      pop\n        /* \"AuctionSystem.sol\":5566:5587  new uint256[](length) */\n      swap1\n      pop\n    tag_109:\n      pop\n        /* \"AuctionSystem.sol\":5552:5587  updateTimes = new uint256[](length) */\n      swap5\n      pop\n        /* \"AuctionSystem.sol\":5625:5626  0 */\n      0x0\n        /* \"AuctionSystem.sol\":5613:5626  uint256 i = 0 */\n      swap2\n      pop\n        /* \"AuctionSystem.sol\":5608:5962  for (uint256 i = 0; i < length; i++) {\r... */\n    tag_110:\n        /* \"AuctionSystem.sol\":5632:5638  length */\n      dup3\n        /* \"AuctionSystem.sol\":5628:5629  i */\n      dup3\n        /* \"AuctionSystem.sol\":5628:5638  i < length */\n      lt\n        /* \"AuctionSystem.sol\":5608:5962  for (uint256 i = 0; i < length; i++) {\r... */\n      iszero\n      tag_111\n      jumpi\n        /* \"AuctionSystem.sol\":5682:5688  orders */\n      0x3\n        /* \"AuctionSystem.sol\":5682:5701  orders[orderIds[i]] */\n      0x0\n        /* \"AuctionSystem.sol\":5689:5697  orderIds */\n      dup6\n        /* \"AuctionSystem.sol\":5698:5699  i */\n      dup5\n        /* \"AuctionSystem.sol\":5689:5700  orderIds[i] */\n      dup2\n      sload\n      dup2\n      lt\n      iszero\n      iszero\n      tag_113\n      jumpi\n      invalid\n    tag_113:\n      swap1\n      0x0\n      mstore\n      keccak256(0x0, 0x20)\n      add\n      sload\n        /* \"AuctionSystem.sol\":5682:5701  orders[orderIds[i]] */\n      dup2\n      mstore\n      0x20\n      add\n      swap1\n      dup2\n      mstore\n      0x20\n      add\n      0x0\n      keccak256\n        /* \"AuctionSystem.sol\":5660:5701  Order storage order = orders[orderIds[i]] */\n      swap1\n      pop\n        /* \"AuctionSystem.sol\":5725:5730  order */\n      dup1\n        /* \"AuctionSystem.sol\":5725:5733  order.id */\n      0x0\n      add\n      sload\n        /* \"AuctionSystem.sol\":5716:5719  ids */\n      dup11\n        /* \"AuctionSystem.sol\":5720:5721  i */\n      dup4\n        /* \"AuctionSystem.sol\":5716:5722  ids[i] */\n      dup2\n      mload\n      dup2\n      lt\n      iszero\n      iszero\n      tag_115\n      jumpi\n      invalid\n    tag_115:\n      swap1\n      0x20\n      add\n      swap1\n      0x20\n      mul\n      add\n        /* \"AuctionSystem.sol\":5716:5733  ids[i] = order.id */\n      dup2\n      dup2\n      mstore\n      pop\n      pop\n        /* \"AuctionSystem.sol\":5761:5766  order */\n      dup1\n        /* \"AuctionSystem.sol\":5761:5773  order.itemId */\n      0x1\n      add\n      sload\n        /* \"AuctionSystem.sol\":5748:5755  itemIds */\n      dup10\n        /* \"AuctionSystem.sol\":5756:5757  i */\n      dup4\n        /* \"AuctionSystem.sol\":5748:5758  itemIds[i] */\n      dup2\n      mload\n      dup2\n      lt\n      iszero\n      iszero\n      tag_116\n      jumpi\n      invalid\n    tag_116:\n      swap1\n      0x20\n      add\n      swap1\n      0x20\n      mul\n      add\n        /* \"AuctionSystem.sol\":5748:5773  itemIds[i] = order.itemId */\n      dup2\n      dup2\n      mstore\n      pop\n      pop\n        /* \"AuctionSystem.sol\":5802:5807  order */\n      dup1\n        /* \"AuctionSystem.sol\":5802:5815  order.buyerId */\n      0x2\n      add\n      sload\n        /* \"AuctionSystem.sol\":5788:5796  buyerIds */\n      dup9\n        /* \"AuctionSystem.sol\":5797:5798  i */\n      dup4\n        /* \"AuctionSystem.sol\":5788:5799  buyerIds[i] */\n      dup2\n      mload\n      dup2\n      lt\n      iszero\n      iszero\n      tag_117\n      jumpi\n      invalid\n    tag_117:\n      swap1\n      0x20\n      add\n      swap1\n      0x20\n      mul\n      add\n        /* \"AuctionSystem.sol\":5788:5815  buyerIds[i] = order.buyerId */\n      dup2\n      dup2\n      mstore\n      pop\n      pop\n        /* \"AuctionSystem.sol\":5846:5851  order */\n      dup1\n        /* \"AuctionSystem.sol\":5846:5861  order.dealPrice */\n      0x3\n      add\n      sload\n        /* \"AuctionSystem.sol\":5830:5840  dealPrices */\n      dup8\n        /* \"AuctionSystem.sol\":5841:5842  i */\n      dup4\n        /* \"AuctionSystem.sol\":5830:5843  dealPrices[i] */\n      dup2\n      mload\n      dup2\n      lt\n      iszero\n      iszero\n      tag_118\n      jumpi\n      invalid\n    tag_118:\n      swap1\n      0x20\n      add\n      swap1\n      0x20\n      mul\n      add\n        /* \"AuctionSystem.sol\":5830:5861  dealPrices[i] = order.dealPrice */\n      dup2\n      dup2\n      mstore\n      pop\n      pop\n        /* \"AuctionSystem.sol\":5890:5895  order */\n      dup1\n        /* \"AuctionSystem.sol\":5890:5902  order.status */\n      0x4\n      add\n      0x0\n      swap1\n      sload\n      swap1\n      0x100\n      exp\n      swap1\n      div\n      0xff\n      and\n        /* \"AuctionSystem.sol\":5876:5884  statuses */\n      dup7\n        /* \"AuctionSystem.sol\":5885:5886  i */\n      dup4\n        /* \"AuctionSystem.sol\":5876:5887  statuses[i] */\n      dup2\n      mload\n      dup2\n      lt\n      iszero\n      iszero\n      tag_119\n      jumpi\n      invalid\n    tag_119:\n      swap1\n      0x20\n      add\n      swap1\n      0x20\n      mul\n      add\n        /* \"AuctionSystem.sol\":5876:5902  statuses[i] = order.status */\n      swap1\n      0xff\n      and\n      swap1\n      dup2\n      0xff\n      and\n      dup2\n      mstore\n      pop\n      pop\n        /* \"AuctionSystem.sol\":5934:5939  order */\n      dup1\n        /* \"AuctionSystem.sol\":5934:5950  order.updateTime */\n      0x5\n      add\n      sload\n        /* \"AuctionSystem.sol\":5917:5928  updateTimes */\n      dup6\n        /* \"AuctionSystem.sol\":5929:5930  i */\n      dup4\n        /* \"AuctionSystem.sol\":5917:5931  updateTimes[i] */\n      dup2\n      mload\n      dup2\n      lt\n      iszero\n      iszero\n      tag_120\n      jumpi\n      invalid\n    tag_120:\n      swap1\n      0x20\n      add\n      swap1\n      0x20\n      mul\n      add\n        /* \"AuctionSystem.sol\":5917:5950  updateTimes[i] = order.updateTime */\n      dup2\n      dup2\n      mstore\n      pop\n      pop\n        /* \"AuctionSystem.sol\":5640:5643  i++ */\n      dup2\n      dup1\n      0x1\n      add\n      swap3\n      pop\n      pop\n        /* \"AuctionSystem.sol\":5608:5962  for (uint256 i = 0; i < length; i++) {\r... */\n      jump(tag_110)\n    tag_111:\n        /* \"AuctionSystem.sol\":5990:5993  ids */\n      dup10\n        /* \"AuctionSystem.sol\":5995:6002  itemIds */\n      dup10\n        /* \"AuctionSystem.sol\":6004:6012  buyerIds */\n      dup10\n        /* \"AuctionSystem.sol\":6014:6024  dealPrices */\n      dup10\n        /* \"AuctionSystem.sol\":6026:6034  statuses */\n      dup10\n        /* \"AuctionSystem.sol\":6036:6047  updateTimes */\n      dup10\n        /* \"AuctionSystem.sol\":5982:6048  return (ids, itemIds, buyerIds, dealPrices, statuses, updateTimes) */\n      swap10\n      pop\n      swap10\n      pop\n      swap10\n      pop\n      swap10\n      pop\n      swap10\n      pop\n      swap10\n      pop\n        /* \"AuctionSystem.sol\":4979:6056  function getOrdersByUser(uint256 _userId) public view returns (\r... */\n      pop\n      pop\n      pop\n      pop\n      swap2\n      swap4\n      swap6\n      pop\n      swap2\n      swap4\n      swap6\n      jump\t// out\n        /* \"AuctionSystem.sol\":1170:1209  mapping(uint256 => Order) public orders */\n    tag_71:\n      mstore(0x20, 0x3)\n      dup1\n      0x0\n      mstore\n      keccak256(0x0, 0x40)\n      0x0\n      swap2\n      pop\n      swap1\n      pop\n      dup1\n      0x0\n      add\n      sload\n      swap1\n      dup1\n      0x1\n      add\n      sload\n      swap1\n      dup1\n      0x2\n      add\n      sload\n      swap1\n      dup1\n      0x3\n      add\n      sload\n      swap1\n      dup1\n      0x4\n      add\n      0x0\n      swap1\n      sload\n      swap1\n      0x100\n      exp\n      swap1\n      div\n      0xff\n      and\n      swap1\n      dup1\n      0x5\n      add\n      sload\n      swap1\n      dup1\n      0x6\n      add\n      0x0\n      swap1\n      sload\n      swap1\n      0x100\n      exp\n      swap1\n      div\n      0xff\n      and\n      swap1\n      pop\n      dup8\n      jump\t// out\n        /* \"AuctionSystem.sol\":971:1001  uint256 public nextBidRecordId */\n    tag_74:\n      sload(0x0)\n      dup2\n      jump\t// out\n        /* \"AuctionSystem.sol\":28:6059  contract AuctionSystem {\r... */\n    tag_78:\n      0xe0\n      mload(0x40)\n      swap1\n      dup2\n      add\n      0x40\n      mstore\n      dup1\n      0x0\n      dup2\n      mstore\n      0x20\n      add\n      0x0\n      dup2\n      mstore\n      0x20\n      add\n      0x0\n      dup2\n      mstore\n      0x20\n      add\n      0x0\n      dup2\n      mstore\n      0x20\n      add\n      and(0xff, 0x0)\n      dup2\n      mstore\n      0x20\n      add\n      0x0\n      dup2\n      mstore\n      0x20\n      add\n      iszero(iszero(0x0))\n      dup2\n      mstore\n      pop\n      swap1\n      jump\t// out\n    tag_84:\n      0xc0\n      mload(0x40)\n      swap1\n      dup2\n      add\n      0x40\n      mstore\n      dup1\n      0x0\n      dup2\n      mstore\n      0x20\n      add\n      0x0\n      dup2\n      mstore\n      0x20\n      add\n      0x0\n      dup2\n      mstore\n      0x20\n      add\n      0x0\n      dup2\n      mstore\n      0x20\n      add\n      0x0\n      dup2\n      mstore\n      0x20\n      add\n      iszero(iszero(0x0))\n      dup2\n      mstore\n      pop\n      swap1\n      jump\t// out\n\n    auxdata: 0xa165627a7a72305820268eee6fc552c9639e0301b78915e4236c4349482a4bfcc6c328efb21eee9ee20029\n}\n",
				"bytecode": {
					"linkReferences": {},
					"object": "608060405234801561001057600080fd5b50600160008190555060018081905550610fea8061002f6000396000f3006080604052600436106100a4576000357c0100000000000000000000000000000000000000000000000000000000900463ffffffff16806306703c65146100a95780630dc8c9b3146100f4578063142d8a3e146101565780632a58b330146101a157806379ba5664146101cc57806379fe1130146102175780639bab0586146103b9578063a13b019614610421578063a85c38ef1461060b578063e652ba7614610680575b600080fd5b3480156100b557600080fd5b506100de60048036038101908080359060200190929190803590602001909291905050506106ab565b6040518082815260200191505060405180910390f35b34801561010057600080fd5b5061015460048036038101908080359060200190929190803590602001909291908035906020019092919080359060200190929190803560ff169060200190929190803590602001909291905050506106db565b005b34801561016257600080fd5b5061018b6004803603810190808035906020019092919080359060200190929190505050610846565b6040518082815260200191505060405180910390f35b3480156101ad57600080fd5b506101b6610876565b6040518082815260200191505060405180910390f35b3480156101d857600080fd5b506102156004803603810190808035906020019092919080359060200190929190803590602001909291908035906020019092919050505061087c565b005b34801561022357600080fd5b50610242600480360381019080803590602001909291905050506109d3565b60405180806020018060200180602001806020018060200186810386528b818151815260200191508051906020019060200280838360005b8381101561029557808201518184015260208101905061027a565b5050505090500186810385528a818151815260200191508051906020019060200280838360005b838110156102d75780820151818401526020810190506102bc565b50505050905001868103845289818151815260200191508051906020019060200280838360005b838110156103195780820151818401526020810190506102fe565b50505050905001868103835288818151815260200191508051906020019060200280838360005b8381101561035b578082015181840152602081019050610340565b50505050905001868103825287818151815260200191508051906020019060200280838360005b8381101561039d578082015181840152602081019050610382565b505050509050019a505050505050505050505060405180910390f35b3480156103c557600080fd5b506103e460048036038101908080359060200190929190505050610bff565b6040518087815260200186815260200185815260200184815260200183815260200182151515158152602001965050505050505060405180910390f35b34801561042d57600080fd5b5061044c60048036038101908080359060200190929190505050610c48565b6040518080602001806020018060200180602001806020018060200187810387528d818151815260200191508051906020019060200280838360005b838110156104a3578082015181840152602081019050610488565b5050505090500187810386528c818151815260200191508051906020019060200280838360005b838110156104e55780820151818401526020810190506104ca565b5050505090500187810385528b818151815260200191508051906020019060200280838360005b8381101561052757808201518184015260208101905061050c565b5050505090500187810384528a818151815260200191508051906020019060200280838360005b8381101561056957808201518184015260208101905061054e565b50505050905001878103835289818151815260200191508051906020019060200280838360005b838110156105ab578082015181840152602081019050610590565b50505050905001878103825288818151815260200191508051906020019060200280838360005b838110156105ed5780820151818401526020810190506105d2565b505050509050019c5050505050505050505050505060405180910390f35b34801561061757600080fd5b5061063660048036038101908080359060200190929190505050610ee0565b604051808881526020018781526020018681526020018581526020018460ff1660ff1681526020018381526020018215151515815260200197505050505050505060405180910390f35b34801561068c57600080fd5b50610695610f3c565b6040518082815260200191505060405180910390f35b6005602052816000526040600020818154811015156106c657fe5b90600052602060002001600091509150505481565b6106e3610f42565b60e0604051908101604052808881526020018781526020018681526020018581526020018460ff16815260200183815260200160011515815250905080600360008981526020019081526020016000206000820151816000015560208201518160010155604082015181600201556060820151816003015560808201518160040160006101000a81548160ff021916908360ff16021790555060a0820151816005015560c08201518160060160006101000a81548160ff021916908315150217905550905050600560008681526020019081526020016000208790806001815401808255809150509060018203906000526020600020016000909192909190915055507f2521a6ea0202bdb001dba7fb1eef0d8a83632c7974c4a84839456147ee95e8698787878786604051808681526020018581526020018481526020018381526020018281526020019550505050505060405180910390a150505050505050565b60046020528160005260406000208181548110151561086157fe5b90600052602060002001600091509150505481565b60015481565b610884610f85565b60c0604051908101604052806000548152602001868152602001858152602001848152602001838152602001600115158152509050806002600080548152602001908152602001600020600082015181600001556020820151816001015560408201518160020155606082015181600301556080820151816004015560a08201518160050160006101000a81548160ff0219169083151502179055509050506004600086815260200190815260200160002060005490806001815401808255809150509060018203906000526020600020016000909192909190915055507f58d410dc1370a220fa6d06b24c35ae795427433dcaed19cfc32cc56b77dfba4260005486868686604051808681526020018581526020018481526020018381526020018281526020019550505050505060405180910390a160008081548092919060010191905055505050505050565b6060806060806060600080600080600460008b815260200190815260200160002093508380549050925082604051908082528060200260200182016040528015610a2c5781602001602082028038833980820191505090505b50985082604051908082528060200260200182016040528015610a5e5781602001602082028038833980820191505090505b50975082604051908082528060200260200182016040528015610a905781602001602082028038833980820191505090505b50965082604051908082528060200260200182016040528015610ac25781602001602082028038833980820191505090505b50955082604051908082528060200260200182016040528015610af45781602001602082028038833980820191505090505b509450600091505b82821015610be357600260008584815481101515610b1657fe5b90600052602060002001548152602001908152602001600020905080600001548983815181101515610b4457fe5b906020019060200201818152505080600101548883815181101515610b6557fe5b906020019060200201818152505080600201548783815181101515610b8657fe5b906020019060200201818152505080600301548683815181101515610ba757fe5b906020019060200201818152505080600401548583815181101515610bc857fe5b90602001906020020181815250508180600101925050610afc565b8888888888985098509850985098505050505091939590929450565b60026020528060005260406000206000915090508060000154908060010154908060020154908060030154908060040154908060050160009054906101000a900460ff16905086565b606080606080606080600080600080600560008c815260200190815260200160002093508380549050925082604051908082528060200260200182016040528015610ca25781602001602082028038833980820191505090505b50995082604051908082528060200260200182016040528015610cd45781602001602082028038833980820191505090505b50985082604051908082528060200260200182016040528015610d065781602001602082028038833980820191505090505b50975082604051908082528060200260200182016040528015610d385781602001602082028038833980820191505090505b50965082604051908082528060200260200182016040528015610d6a5781602001602082028038833980820191505090505b50955082604051908082528060200260200182016040528015610d9c5781602001602082028038833980820191505090505b509450600091505b82821015610ec157600360008584815481101515610dbe57fe5b90600052602060002001548152602001908152602001600020905080600001548a83815181101515610dec57fe5b906020019060200201818152505080600101548983815181101515610e0d57fe5b906020019060200201818152505080600201548883815181101515610e2e57fe5b906020019060200201818152505080600301548783815181101515610e4f57fe5b90602001906020020181815250508060040160009054906101000a900460ff168683815181101515610e7d57fe5b9060200190602002019060ff16908160ff168152505080600501548583815181101515610ea657fe5b90602001906020020181815250508180600101925050610da4565b8989898989899950995099509950995099505050505091939550919395565b60036020528060005260406000206000915090508060000154908060010154908060020154908060030154908060040160009054906101000a900460ff16908060050154908060060160009054906101000a900460ff16905087565b60005481565b60e06040519081016040528060008152602001600081526020016000815260200160008152602001600060ff168152602001600081526020016000151581525090565b60c060405190810160405280600081526020016000815260200160008152602001600081526020016000815260200160001515815250905600a165627a7a72305820268eee6fc552c9639e0301b78915e4236c4349482a4bfcc6c328efb21eee9ee20029",
					"opcodes": "PUSH1 0x80 PUSH1 0x40 MSTORE CALLVALUE DUP1 ISZERO PUSH2 0x10 JUMPI PUSH1 0x0 DUP1 REVERT JUMPDEST POP PUSH1 0x1 PUSH1 0x0 DUP2 SWAP1 SSTORE POP PUSH1 0x1 DUP1 DUP2 SWAP1 SSTORE POP PUSH2 0xFEA DUP1 PUSH2 0x2F PUSH1 0x0 CODECOPY PUSH1 0x0 RETURN STOP PUSH1 0x80 PUSH1 0x40 MSTORE PUSH1 0x4 CALLDATASIZE LT PUSH2 0xA4 JUMPI PUSH1 0x0 CALLDATALOAD PUSH29 0x100000000000000000000000000000000000000000000000000000000 SWAP1 DIV PUSH4 0xFFFFFFFF AND DUP1 PUSH4 0x6703C65 EQ PUSH2 0xA9 JUMPI DUP1 PUSH4 0xDC8C9B3 EQ PUSH2 0xF4 JUMPI DUP1 PUSH4 0x142D8A3E EQ PUSH2 0x156 JUMPI DUP1 PUSH4 0x2A58B330 EQ PUSH2 0x1A1 JUMPI DUP1 PUSH4 0x79BA5664 EQ PUSH2 0x1CC JUMPI DUP1 PUSH4 0x79FE1130 EQ PUSH2 0x217 JUMPI DUP1 PUSH4 0x9BAB0586 EQ PUSH2 0x3B9 JUMPI DUP1 PUSH4 0xA13B0196 EQ PUSH2 0x421 JUMPI DUP1 PUSH4 0xA85C38EF EQ PUSH2 0x60B JUMPI DUP1 PUSH4 0xE652BA76 EQ PUSH2 0x680 JUMPI JUMPDEST PUSH1 0x0 DUP1 REVERT JUMPDEST CALLVALUE DUP1 ISZERO PUSH2 0xB5 JUMPI PUSH1 0x0 DUP1 REVERT JUMPDEST POP PUSH2 0xDE PUSH1 0x4 DUP1 CALLDATASIZE SUB DUP2 ADD SWAP1 DUP1 DUP1 CALLDATALOAD SWAP1 PUSH1 0x20 ADD SWAP1 SWAP3 SWAP2 SWAP1 DUP1 CALLDATALOAD SWAP1 PUSH1 0x20 ADD SWAP1 SWAP3 SWAP2 SWAP1 POP POP POP PUSH2 0x6AB JUMP JUMPDEST PUSH1 0x40 MLOAD DUP1 DUP3 DUP2 MSTORE PUSH1 0x20 ADD SWAP2 POP POP PUSH1 0x40 MLOAD DUP1 SWAP2 SUB SWAP1 RETURN JUMPDEST CALLVALUE DUP1 ISZERO PUSH2 0x100 JUMPI PUSH1 0x0 DUP1 REVERT JUMPDEST POP PUSH2 0x154 PUSH1 0x4 DUP1 CALLDATASIZE SUB DUP2 ADD SWAP1 DUP1 DUP1 CALLDATALOAD SWAP1 PUSH1 0x20 ADD SWAP1 SWAP3 SWAP2 SWAP1 DUP1 CALLDATALOAD SWAP1 PUSH1 0x20 ADD SWAP1 SWAP3 SWAP2 SWAP1 DUP1 CALLDATALOAD SWAP1 PUSH1 0x20 ADD SWAP1 SWAP3 SWAP2 SWAP1 DUP1 CALLDATALOAD SWAP1 PUSH1 0x20 ADD SWAP1 SWAP3 SWAP2 SWAP1 DUP1 CALLDATALOAD PUSH1 0xFF AND SWAP1 PUSH1 0x20 ADD SWAP1 SWAP3 SWAP2 SWAP1 DUP1 CALLDATALOAD SWAP1 PUSH1 0x20 ADD SWAP1 SWAP3 SWAP2 SWAP1 POP POP POP PUSH2 0x6DB JUMP JUMPDEST STOP JUMPDEST CALLVALUE DUP1 ISZERO PUSH2 0x162 JUMPI PUSH1 0x0 DUP1 REVERT JUMPDEST POP PUSH2 0x18B PUSH1 0x4 DUP1 CALLDATASIZE SUB DUP2 ADD SWAP1 DUP1 DUP1 CALLDATALOAD SWAP1 PUSH1 0x20 ADD SWAP1 SWAP3 SWAP2 SWAP1 DUP1 CALLDATALOAD SWAP1 PUSH1 0x20 ADD SWAP1 SWAP3 SWAP2 SWAP1 POP POP POP PUSH2 0x846 JUMP JUMPDEST PUSH1 0x40 MLOAD DUP1 DUP3 DUP2 MSTORE PUSH1 0x20 ADD SWAP2 POP POP PUSH1 0x40 MLOAD DUP1 SWAP2 SUB SWAP1 RETURN JUMPDEST CALLVALUE DUP1 ISZERO PUSH2 0x1AD JUMPI PUSH1 0x0 DUP1 REVERT JUMPDEST POP PUSH2 0x1B6 PUSH2 0x876 JUMP JUMPDEST PUSH1 0x40 MLOAD DUP1 DUP3 DUP2 MSTORE PUSH1 0x20 ADD SWAP2 POP POP PUSH1 0x40 MLOAD DUP1 SWAP2 SUB SWAP1 RETURN JUMPDEST CALLVALUE DUP1 ISZERO PUSH2 0x1D8 JUMPI PUSH1 0x0 DUP1 REVERT JUMPDEST POP PUSH2 0x215 PUSH1 0x4 DUP1 CALLDATASIZE SUB DUP2 ADD SWAP1 DUP1 DUP1 CALLDATALOAD SWAP1 PUSH1 0x20 ADD SWAP1 SWAP3 SWAP2 SWAP1 DUP1 CALLDATALOAD SWAP1 PUSH1 0x20 ADD SWAP1 SWAP3 SWAP2 SWAP1 DUP1 CALLDATALOAD SWAP1 PUSH1 0x20 ADD SWAP1 SWAP3 SWAP2 SWAP1 DUP1 CALLDATALOAD SWAP1 PUSH1 0x20 ADD SWAP1 SWAP3 SWAP2 SWAP1 POP POP POP PUSH2 0x87C JUMP JUMPDEST STOP JUMPDEST CALLVALUE DUP1 ISZERO PUSH2 0x223 JUMPI PUSH1 0x0 DUP1 REVERT JUMPDEST POP PUSH2 0x242 PUSH1 0x4 DUP1 CALLDATASIZE SUB DUP2 ADD SWAP1 DUP1 DUP1 CALLDATALOAD SWAP1 PUSH1 0x20 ADD SWAP1 SWAP3 SWAP2 SWAP1 POP POP POP PUSH2 0x9D3 JUMP JUMPDEST PUSH1 0x40 MLOAD DUP1 DUP1 PUSH1 0x20 ADD DUP1 PUSH1 0x20 ADD DUP1 PUSH1 0x20 ADD DUP1 PUSH1 0x20 ADD DUP1 PUSH1 0x20 ADD DUP7 DUP2 SUB DUP7 MSTORE DUP12 DUP2 DUP2 MLOAD DUP2 MSTORE PUSH1 0x20 ADD SWAP2 POP DUP1 MLOAD SWAP1 PUSH1 0x20 ADD SWAP1 PUSH1 0x20 MUL DUP1 DUP4 DUP4 PUSH1 0x0 JUMPDEST DUP4 DUP2 LT ISZERO PUSH2 0x295 JUMPI DUP1 DUP3 ADD MLOAD DUP2 DUP5 ADD MSTORE PUSH1 0x20 DUP2 ADD SWAP1 POP PUSH2 0x27A JUMP JUMPDEST POP POP POP POP SWAP1 POP ADD DUP7 DUP2 SUB DUP6 MSTORE DUP11 DUP2 DUP2 MLOAD DUP2 MSTORE PUSH1 0x20 ADD SWAP2 POP DUP1 MLOAD SWAP1 PUSH1 0x20 ADD SWAP1 PUSH1 0x20 MUL DUP1 DUP4 DUP4 PUSH1 0x0 JUMPDEST DUP4 DUP2 LT ISZERO PUSH2 0x2D7 JUMPI DUP1 DUP3 ADD MLOAD DUP2 DUP5 ADD MSTORE PUSH1 0x20 DUP2 ADD SWAP1 POP PUSH2 0x2BC JUMP JUMPDEST POP POP POP POP SWAP1 POP ADD DUP7 DUP2 SUB DUP5 MSTORE DUP10 DUP2 DUP2 MLOAD DUP2 MSTORE PUSH1 0x20 ADD SWAP2 POP DUP1 MLOAD SWAP1 PUSH1 0x20 ADD SWAP1 PUSH1 0x20 MUL DUP1 DUP4 DUP4 PUSH1 0x0 JUMPDEST DUP4 DUP2 LT ISZERO PUSH2 0x319 JUMPI DUP1 DUP3 ADD MLOAD DUP2 DUP5 ADD MSTORE PUSH1 0x20 DUP2 ADD SWAP1 POP PUSH2 0x2FE JUMP JUMPDEST POP POP POP POP SWAP1 POP ADD DUP7 DUP2 SUB DUP4 MSTORE DUP9 DUP2 DUP2 MLOAD DUP2 MSTORE PUSH1 0x20 ADD SWAP2 POP DUP1 MLOAD SWAP1 PUSH1 0x20 ADD SWAP1 PUSH1 0x20 MUL DUP1 DUP4 DUP4 PUSH1 0x0 JUMPDEST DUP4 DUP2 LT ISZERO PUSH2 0x35B JUMPI DUP1 DUP3 ADD MLOAD DUP2 DUP5 ADD MSTORE PUSH1 0x20 DUP2 ADD SWAP1 POP PUSH2 0x340 JUMP JUMPDEST POP POP POP POP SWAP1 POP ADD DUP7 DUP2 SUB DUP3 MSTORE DUP8 DUP2 DUP2 MLOAD DUP2 MSTORE PUSH1 0x20 ADD SWAP2 POP DUP1 MLOAD SWAP1 PUSH1 0x20 ADD SWAP1 PUSH1 0x20 MUL DUP1 DUP4 DUP4 PUSH1 0x0 JUMPDEST DUP4 DUP2 LT ISZERO PUSH2 0x39D JUMPI DUP1 DUP3 ADD MLOAD DUP2 DUP5 ADD MSTORE PUSH1 0x20 DUP2 ADD SWAP1 POP PUSH2 0x382 JUMP JUMPDEST POP POP POP POP SWAP1 POP ADD SWAP11 POP POP POP POP POP POP POP POP POP POP POP PUSH1 0x40 MLOAD DUP1 SWAP2 SUB SWAP1 RETURN JUMPDEST CALLVALUE DUP1 ISZERO PUSH2 0x3C5 JUMPI PUSH1 0x0 DUP1 REVERT JUMPDEST POP PUSH2 0x3E4 PUSH1 0x4 DUP1 CALLDATASIZE SUB DUP2 ADD SWAP1 DUP1 DUP1 CALLDATALOAD SWAP1 PUSH1 0x20 ADD SWAP1 SWAP3 SWAP2 SWAP1 POP POP POP PUSH2 0xBFF JUMP JUMPDEST PUSH1 0x40 MLOAD DUP1 DUP8 DUP2 MSTORE PUSH1 0x20 ADD DUP7 DUP2 MSTORE PUSH1 0x20 ADD DUP6 DUP2 MSTORE PUSH1 0x20 ADD DUP5 DUP2 MSTORE PUSH1 0x20 ADD DUP4 DUP2 MSTORE PUSH1 0x20 ADD DUP3 ISZERO ISZERO ISZERO ISZERO DUP2 MSTORE PUSH1 0x20 ADD SWAP7 POP POP POP POP POP POP POP PUSH1 0x40 MLOAD DUP1 SWAP2 SUB SWAP1 RETURN JUMPDEST CALLVALUE DUP1 ISZERO PUSH2 0x42D JUMPI PUSH1 0x0 DUP1 REVERT JUMPDEST POP PUSH2 0x44C PUSH1 0x4 DUP1 CALLDATASIZE SUB DUP2 ADD SWAP1 DUP1 DUP1 CALLDATALOAD SWAP1 PUSH1 0x20 ADD SWAP1 SWAP3 SWAP2 SWAP1 POP POP POP PUSH2 0xC48 JUMP JUMPDEST PUSH1 0x40 MLOAD DUP1 DUP1 PUSH1 0x20 ADD DUP1 PUSH1 0x20 ADD DUP1 PUSH1 0x20 ADD DUP1 PUSH1 0x20 ADD DUP1 PUSH1 0x20 ADD DUP1 PUSH1 0x20 ADD DUP8 DUP2 SUB DUP8 MSTORE DUP14 DUP2 DUP2 MLOAD DUP2 MSTORE PUSH1 0x20 ADD SWAP2 POP DUP1 MLOAD SWAP1 PUSH1 0x20 ADD SWAP1 PUSH1 0x20 MUL DUP1 DUP4 DUP4 PUSH1 0x0 JUMPDEST DUP4 DUP2 LT ISZERO PUSH2 0x4A3 JUMPI DUP1 DUP3 ADD MLOAD DUP2 DUP5 ADD MSTORE PUSH1 0x20 DUP2 ADD SWAP1 POP PUSH2 0x488 JUMP JUMPDEST POP POP POP POP SWAP1 POP ADD DUP8 DUP2 SUB DUP7 MSTORE DUP13 DUP2 DUP2 MLOAD DUP2 MSTORE PUSH1 0x20 ADD SWAP2 POP DUP1 MLOAD SWAP1 PUSH1 0x20 ADD SWAP1 PUSH1 0x20 MUL DUP1 DUP4 DUP4 PUSH1 0x0 JUMPDEST DUP4 DUP2 LT ISZERO PUSH2 0x4E5 JUMPI DUP1 DUP3 ADD MLOAD DUP2 DUP5 ADD MSTORE PUSH1 0x20 DUP2 ADD SWAP1 POP PUSH2 0x4CA JUMP JUMPDEST POP POP POP POP SWAP1 POP ADD DUP8 DUP2 SUB DUP6 MSTORE DUP12 DUP2 DUP2 MLOAD DUP2 MSTORE PUSH1 0x20 ADD SWAP2 POP DUP1 MLOAD SWAP1 PUSH1 0x20 ADD SWAP1 PUSH1 0x20 MUL DUP1 DUP4 DUP4 PUSH1 0x0 JUMPDEST DUP4 DUP2 LT ISZERO PUSH2 0x527 JUMPI DUP1 DUP3 ADD MLOAD DUP2 DUP5 ADD MSTORE PUSH1 0x20 DUP2 ADD SWAP1 POP PUSH2 0x50C JUMP JUMPDEST POP POP POP POP SWAP1 POP ADD DUP8 DUP2 SUB DUP5 MSTORE DUP11 DUP2 DUP2 MLOAD DUP2 MSTORE PUSH1 0x20 ADD SWAP2 POP DUP1 MLOAD SWAP1 PUSH1 0x20 ADD SWAP1 PUSH1 0x20 MUL DUP1 DUP4 DUP4 PUSH1 0x0 JUMPDEST DUP4 DUP2 LT ISZERO PUSH2 0x569 JUMPI DUP1 DUP3 ADD MLOAD DUP2 DUP5 ADD MSTORE PUSH1 0x20 DUP2 ADD SWAP1 POP PUSH2 0x54E JUMP JUMPDEST POP POP POP POP SWAP1 POP ADD DUP8 DUP2 SUB DUP4 MSTORE DUP10 DUP2 DUP2 MLOAD DUP2 MSTORE PUSH1 0x20 ADD SWAP2 POP DUP1 MLOAD SWAP1 PUSH1 0x20 ADD SWAP1 PUSH1 0x20 MUL DUP1 DUP4 DUP4 PUSH1 0x0 JUMPDEST DUP4 DUP2 LT ISZERO PUSH2 0x5AB JUMPI DUP1 DUP3 ADD MLOAD DUP2 DUP5 ADD MSTORE PUSH1 0x20 DUP2 ADD SWAP1 POP PUSH2 0x590 JUMP JUMPDEST POP POP POP POP SWAP1 POP ADD DUP8 DUP2 SUB DUP3 MSTORE DUP9 DUP2 DUP2 MLOAD DUP2 MSTORE PUSH1 0x20 ADD SWAP2 POP DUP1 MLOAD SWAP1 PUSH1 0x20 ADD SWAP1 PUSH1 0x20 MUL DUP1 DUP4 DUP4 PUSH1 0x0 JUMPDEST DUP4 DUP2 LT ISZERO PUSH2 0x5ED JUMPI DUP1 DUP3 ADD MLOAD DUP2 DUP5 ADD MSTORE PUSH1 0x20 DUP2 ADD SWAP1 POP PUSH2 0x5D2 JUMP JUMPDEST POP POP POP POP SWAP1 POP ADD SWAP13 POP POP POP POP POP POP POP POP POP POP POP POP POP PUSH1 0x40 MLOAD DUP1 SWAP2 SUB SWAP1 RETURN JUMPDEST CALLVALUE DUP1 ISZERO PUSH2 0x617 JUMPI PUSH1 0x0 DUP1 REVERT JUMPDEST POP PUSH2 0x636 PUSH1 0x4 DUP1 CALLDATASIZE SUB DUP2 ADD SWAP1 DUP1 DUP1 CALLDATALOAD SWAP1 PUSH1 0x20 ADD SWAP1 SWAP3 SWAP2 SWAP1 POP POP POP PUSH2 0xEE0 JUMP JUMPDEST PUSH1 0x40 MLOAD DUP1 DUP9 DUP2 MSTORE PUSH1 0x20 ADD DUP8 DUP2 MSTORE PUSH1 0x20 ADD DUP7 DUP2 MSTORE PUSH1 0x20 ADD DUP6 DUP2 MSTORE PUSH1 0x20 ADD DUP5 PUSH1 0xFF AND PUSH1 0xFF AND DUP2 MSTORE PUSH1 0x20 ADD DUP4 DUP2 MSTORE PUSH1 0x20 ADD DUP3 ISZERO ISZERO ISZERO ISZERO DUP2 MSTORE PUSH1 0x20 ADD SWAP8 POP POP POP POP POP POP POP POP PUSH1 0x40 MLOAD DUP1 SWAP2 SUB SWAP1 RETURN JUMPDEST CALLVALUE DUP1 ISZERO PUSH2 0x68C JUMPI PUSH1 0x0 DUP1 REVERT JUMPDEST POP PUSH2 0x695 PUSH2 0xF3C JUMP JUMPDEST PUSH1 0x40 MLOAD DUP1 DUP3 DUP2 MSTORE PUSH1 0x20 ADD SWAP2 POP POP PUSH1 0x40 MLOAD DUP1 SWAP2 SUB SWAP1 RETURN JUMPDEST PUSH1 0x5 PUSH1 0x20 MSTORE DUP2 PUSH1 0x0 MSTORE PUSH1 0x40 PUSH1 0x0 KECCAK256 DUP2 DUP2 SLOAD DUP2 LT ISZERO ISZERO PUSH2 0x6C6 JUMPI INVALID JUMPDEST SWAP1 PUSH1 0x0 MSTORE PUSH1 0x20 PUSH1 0x0 KECCAK256 ADD PUSH1 0x0 SWAP2 POP SWAP2 POP POP SLOAD DUP2 JUMP JUMPDEST PUSH2 0x6E3 PUSH2 0xF42 JUMP JUMPDEST PUSH1 0xE0 PUSH1 0x40 MLOAD SWAP1 DUP2 ADD PUSH1 0x40 MSTORE DUP1 DUP9 DUP2 MSTORE PUSH1 0x20 ADD DUP8 DUP2 MSTORE PUSH1 0x20 ADD DUP7 DUP2 MSTORE PUSH1 0x20 ADD DUP6 DUP2 MSTORE PUSH1 0x20 ADD DUP5 PUSH1 0xFF AND DUP2 MSTORE PUSH1 0x20 ADD DUP4 DUP2 MSTORE PUSH1 0x20 ADD PUSH1 0x1 ISZERO ISZERO DUP2 MSTORE POP SWAP1 POP DUP1 PUSH1 0x3 PUSH1 0x0 DUP10 DUP2 MSTORE PUSH1 0x20 ADD SWAP1 DUP2 MSTORE PUSH1 0x20 ADD PUSH1 0x0 KECCAK256 PUSH1 0x0 DUP3 ADD MLOAD DUP2 PUSH1 0x0 ADD SSTORE PUSH1 0x20 DUP3 ADD MLOAD DUP2 PUSH1 0x1 ADD SSTORE PUSH1 0x40 DUP3 ADD MLOAD DUP2 PUSH1 0x2 ADD SSTORE PUSH1 0x60 DUP3 ADD MLOAD DUP2 PUSH1 0x3 ADD SSTORE PUSH1 0x80 DUP3 ADD MLOAD DUP2 PUSH1 0x4 ADD PUSH1 0x0 PUSH2 0x100 EXP DUP2 SLOAD DUP2 PUSH1 0xFF MUL NOT AND SWAP1 DUP4 PUSH1 0xFF AND MUL OR SWAP1 SSTORE POP PUSH1 0xA0 DUP3 ADD MLOAD DUP2 PUSH1 0x5 ADD SSTORE PUSH1 0xC0 DUP3 ADD MLOAD DUP2 PUSH1 0x6 ADD PUSH1 0x0 PUSH2 0x100 EXP DUP2 SLOAD DUP2 PUSH1 0xFF MUL NOT AND SWAP1 DUP4 ISZERO ISZERO MUL OR SWAP1 SSTORE POP SWAP1 POP POP PUSH1 0x5 PUSH1 0x0 DUP7 DUP2 MSTORE PUSH1 0x20 ADD SWAP1 DUP2 MSTORE PUSH1 0x20 ADD PUSH1 0x0 KECCAK256 DUP8 SWAP1 DUP1 PUSH1 0x1 DUP2 SLOAD ADD DUP1 DUP3 SSTORE DUP1 SWAP2 POP POP SWAP1 PUSH1 0x1 DUP3 SUB SWAP1 PUSH1 0x0 MSTORE PUSH1 0x20 PUSH1 0x0 KECCAK256 ADD PUSH1 0x0 SWAP1 SWAP2 SWAP3 SWAP1 SWAP2 SWAP1 SWAP2 POP SSTORE POP PUSH32 0x2521A6EA0202BDB001DBA7FB1EEF0D8A83632C7974C4A84839456147EE95E869 DUP8 DUP8 DUP8 DUP8 DUP7 PUSH1 0x40 MLOAD DUP1 DUP7 DUP2 MSTORE PUSH1 0x20 ADD DUP6 DUP2 MSTORE PUSH1 0x20 ADD DUP5 DUP2 MSTORE PUSH1 0x20 ADD DUP4 DUP2 MSTORE PUSH1 0x20 ADD DUP3 DUP2 MSTORE PUSH1 0x20 ADD SWAP6 POP POP POP POP POP POP PUSH1 0x40 MLOAD DUP1 SWAP2 SUB SWAP1 LOG1 POP POP POP POP POP POP POP JUMP JUMPDEST PUSH1 0x4 PUSH1 0x20 MSTORE DUP2 PUSH1 0x0 MSTORE PUSH1 0x40 PUSH1 0x0 KECCAK256 DUP2 DUP2 SLOAD DUP2 LT ISZERO ISZERO PUSH2 0x861 JUMPI INVALID JUMPDEST SWAP1 PUSH1 0x0 MSTORE PUSH1 0x20 PUSH1 0x0 KECCAK256 ADD PUSH1 0x0 SWAP2 POP SWAP2 POP POP SLOAD DUP2 JUMP JUMPDEST PUSH1 0x1 SLOAD DUP2 JUMP JUMPDEST PUSH2 0x884 PUSH2 0xF85 JUMP JUMPDEST PUSH1 0xC0 PUSH1 0x40 MLOAD SWAP1 DUP2 ADD PUSH1 0x40 MSTORE DUP1 PUSH1 0x0 SLOAD DUP2 MSTORE PUSH1 0x20 ADD DUP7 DUP2 MSTORE PUSH1 0x20 ADD DUP6 DUP2 MSTORE PUSH1 0x20 ADD DUP5 DUP2 MSTORE PUSH1 0x20 ADD DUP4 DUP2 MSTORE PUSH1 0x20 ADD PUSH1 0x1 ISZERO ISZERO DUP2 MSTORE POP SWAP1 POP DUP1 PUSH1 0x2 PUSH1 0x0 DUP1 SLOAD DUP2 MSTORE PUSH1 0x20 ADD SWAP1 DUP2 MSTORE PUSH1 0x20 ADD PUSH1 0x0 KECCAK256 PUSH1 0x0 DUP3 ADD MLOAD DUP2 PUSH1 0x0 ADD SSTORE PUSH1 0x20 DUP3 ADD MLOAD DUP2 PUSH1 0x1 ADD SSTORE PUSH1 0x40 DUP3 ADD MLOAD DUP2 PUSH1 0x2 ADD SSTORE PUSH1 0x60 DUP3 ADD MLOAD DUP2 PUSH1 0x3 ADD SSTORE PUSH1 0x80 DUP3 ADD MLOAD DUP2 PUSH1 0x4 ADD SSTORE PUSH1 0xA0 DUP3 ADD MLOAD DUP2 PUSH1 0x5 ADD PUSH1 0x0 PUSH2 0x100 EXP DUP2 SLOAD DUP2 PUSH1 0xFF MUL NOT AND SWAP1 DUP4 ISZERO ISZERO MUL OR SWAP1 SSTORE POP SWAP1 POP POP PUSH1 0x4 PUSH1 0x0 DUP7 DUP2 MSTORE PUSH1 0x20 ADD SWAP1 DUP2 MSTORE PUSH1 0x20 ADD PUSH1 0x0 KECCAK256 PUSH1 0x0 SLOAD SWAP1 DUP1 PUSH1 0x1 DUP2 SLOAD ADD DUP1 DUP3 SSTORE DUP1 SWAP2 POP POP SWAP1 PUSH1 0x1 DUP3 SUB SWAP1 PUSH1 0x0 MSTORE PUSH1 0x20 PUSH1 0x0 KECCAK256 ADD PUSH1 0x0 SWAP1 SWAP2 SWAP3 SWAP1 SWAP2 SWAP1 SWAP2 POP SSTORE POP PUSH32 0x58D410DC1370A220FA6D06B24C35AE795427433DCAED19CFC32CC56B77DFBA42 PUSH1 0x0 SLOAD DUP7 DUP7 DUP7 DUP7 PUSH1 0x40 MLOAD DUP1 DUP7 DUP2 MSTORE PUSH1 0x20 ADD DUP6 DUP2 MSTORE PUSH1 0x20 ADD DUP5 DUP2 MSTORE PUSH1 0x20 ADD DUP4 DUP2 MSTORE PUSH1 0x20 ADD DUP3 DUP2 MSTORE PUSH1 0x20 ADD SWAP6 POP POP POP POP POP POP PUSH1 0x40 MLOAD DUP1 SWAP2 SUB SWAP1 LOG1 PUSH1 0x0 DUP1 DUP2 SLOAD DUP1 SWAP3 SWAP2 SWAP1 PUSH1 0x1 ADD SWAP2 SWAP1 POP SSTORE POP POP POP POP POP POP JUMP JUMPDEST PUSH1 0x60 DUP1 PUSH1 0x60 DUP1 PUSH1 0x60 PUSH1 0x0 DUP1 PUSH1 0x0 DUP1 PUSH1 0x4 PUSH1 0x0 DUP12 DUP2 MSTORE PUSH1 0x20 ADD SWAP1 DUP2 MSTORE PUSH1 0x20 ADD PUSH1 0x0 KECCAK256 SWAP4 POP DUP4 DUP1 SLOAD SWAP1 POP SWAP3 POP DUP3 PUSH1 0x40 MLOAD SWAP1 DUP1 DUP3 MSTORE DUP1 PUSH1 0x20 MUL PUSH1 0x20 ADD DUP3 ADD PUSH1 0x40 MSTORE DUP1 ISZERO PUSH2 0xA2C JUMPI DUP2 PUSH1 0x20 ADD PUSH1 0x20 DUP3 MUL DUP1 CODESIZE DUP4 CODECOPY DUP1 DUP3 ADD SWAP2 POP POP SWAP1 POP JUMPDEST POP SWAP9 POP DUP3 PUSH1 0x40 MLOAD SWAP1 DUP1 DUP3 MSTORE DUP1 PUSH1 0x20 MUL PUSH1 0x20 ADD DUP3 ADD PUSH1 0x40 MSTORE DUP1 ISZERO PUSH2 0xA5E JUMPI DUP2 PUSH1 0x20 ADD PUSH1 0x20 DUP3 MUL DUP1 CODESIZE DUP4 CODECOPY DUP1 DUP3 ADD SWAP2 POP POP SWAP1 POP JUMPDEST POP SWAP8 POP DUP3 PUSH1 0x40 MLOAD SWAP1 DUP1 DUP3 MSTORE DUP1 PUSH1 0x20 MUL PUSH1 0x20 ADD DUP3 ADD PUSH1 0x40 MSTORE DUP1 ISZERO PUSH2 0xA90 JUMPI DUP2 PUSH1 0x20 ADD PUSH1 0x20 DUP3 MUL DUP1 CODESIZE DUP4 CODECOPY DUP1 DUP3 ADD SWAP2 POP POP SWAP1 POP JUMPDEST POP SWAP7 POP DUP3 PUSH1 0x40 MLOAD SWAP1 DUP1 DUP3 MSTORE DUP1 PUSH1 0x20 MUL PUSH1 0x20 ADD DUP3 ADD PUSH1 0x40 MSTORE DUP1 ISZERO PUSH2 0xAC2 JUMPI DUP2 PUSH1 0x20 ADD PUSH1 0x20 DUP3 MUL DUP1 CODESIZE DUP4 CODECOPY DUP1 DUP3 ADD SWAP2 POP POP SWAP1 POP JUMPDEST POP SWAP6 POP DUP3 PUSH1 0x40 MLOAD SWAP1 DUP1 DUP3 MSTORE DUP1 PUSH1 0x20 MUL PUSH1 0x20 ADD DUP3 ADD PUSH1 0x40 MSTORE DUP1 ISZERO PUSH2 0xAF4 JUMPI DUP2 PUSH1 0x20 ADD PUSH1 0x20 DUP3 MUL DUP1 CODESIZE DUP4 CODECOPY DUP1 DUP3 ADD SWAP2 POP POP SWAP1 POP JUMPDEST POP SWAP5 POP PUSH1 0x0 SWAP2 POP JUMPDEST DUP3 DUP3 LT ISZERO PUSH2 0xBE3 JUMPI PUSH1 0x2 PUSH1 0x0 DUP6 DUP5 DUP2 SLOAD DUP2 LT ISZERO ISZERO PUSH2 0xB16 JUMPI INVALID JUMPDEST SWAP1 PUSH1 0x0 MSTORE PUSH1 0x20 PUSH1 0x0 KECCAK256 ADD SLOAD DUP2 MSTORE PUSH1 0x20 ADD SWAP1 DUP2 MSTORE PUSH1 0x20 ADD PUSH1 0x0 KECCAK256 SWAP1 POP DUP1 PUSH1 0x0 ADD SLOAD DUP10 DUP4 DUP2 MLOAD DUP2 LT ISZERO ISZERO PUSH2 0xB44 JUMPI INVALID JUMPDEST SWAP1 PUSH1 0x20 ADD SWAP1 PUSH1 0x20 MUL ADD DUP2 DUP2 MSTORE POP POP DUP1 PUSH1 0x1 ADD SLOAD DUP9 DUP4 DUP2 MLOAD DUP2 LT ISZERO ISZERO PUSH2 0xB65 JUMPI INVALID JUMPDEST SWAP1 PUSH1 0x20 ADD SWAP1 PUSH1 0x20 MUL ADD DUP2 DUP2 MSTORE POP POP DUP1 PUSH1 0x2 ADD SLOAD DUP8 DUP4 DUP2 MLOAD DUP2 LT ISZERO ISZERO PUSH2 0xB86 JUMPI INVALID JUMPDEST SWAP1 PUSH1 0x20 ADD SWAP1 PUSH1 0x20 MUL ADD DUP2 DUP2 MSTORE POP POP DUP1 PUSH1 0x3 ADD SLOAD DUP7 DUP4 DUP2 MLOAD DUP2 LT ISZERO ISZERO PUSH2 0xBA7 JUMPI INVALID JUMPDEST SWAP1 PUSH1 0x20 ADD SWAP1 PUSH1 0x20 MUL ADD DUP2 DUP2 MSTORE POP POP DUP1 PUSH1 0x4 ADD SLOAD DUP6 DUP4 DUP2 MLOAD DUP2 LT ISZERO ISZERO PUSH2 0xBC8 JUMPI INVALID JUMPDEST SWAP1 PUSH1 0x20 ADD SWAP1 PUSH1 0x20 MUL ADD DUP2 DUP2 MSTORE POP POP DUP2 DUP1 PUSH1 0x1 ADD SWAP3 POP POP PUSH2 0xAFC JUMP JUMPDEST DUP9 DUP9 DUP9 DUP9 DUP9 SWAP9 POP SWAP9 POP SWAP9 POP SWAP9 POP SWAP9 POP POP POP POP POP SWAP2 SWAP4 SWAP6 SWAP1 SWAP3 SWAP5 POP JUMP JUMPDEST PUSH1 0x2 PUSH1 0x20 MSTORE DUP1 PUSH1 0x0 MSTORE PUSH1 0x40 PUSH1 0x0 KECCAK256 PUSH1 0x0 SWAP2 POP SWAP1 POP DUP1 PUSH1 0x0 ADD SLOAD SWAP1 DUP1 PUSH1 0x1 ADD SLOAD SWAP1 DUP1 PUSH1 0x2 ADD SLOAD SWAP1 DUP1 PUSH1 0x3 ADD SLOAD SWAP1 DUP1 PUSH1 0x4 ADD SLOAD SWAP1 DUP1 PUSH1 0x5 ADD PUSH1 0x0 SWAP1 SLOAD SWAP1 PUSH2 0x100 EXP SWAP1 DIV PUSH1 0xFF AND SWAP1 POP DUP7 JUMP JUMPDEST PUSH1 0x60 DUP1 PUSH1 0x60 DUP1 PUSH1 0x60 DUP1 PUSH1 0x0 DUP1 PUSH1 0x0 DUP1 PUSH1 0x5 PUSH1 0x0 DUP13 DUP2 MSTORE PUSH1 0x20 ADD SWAP1 DUP2 MSTORE PUSH1 0x20 ADD PUSH1 0x0 KECCAK256 SWAP4 POP DUP4 DUP1 SLOAD SWAP1 POP SWAP3 POP DUP3 PUSH1 0x40 MLOAD SWAP1 DUP1 DUP3 MSTORE DUP1 PUSH1 0x20 MUL PUSH1 0x20 ADD DUP3 ADD PUSH1 0x40 MSTORE DUP1 ISZERO PUSH2 0xCA2 JUMPI DUP2 PUSH1 0x20 ADD PUSH1 0x20 DUP3 MUL DUP1 CODESIZE DUP4 CODECOPY DUP1 DUP3 ADD SWAP2 POP POP SWAP1 POP JUMPDEST POP SWAP10 POP DUP3 PUSH1 0x40 MLOAD SWAP1 DUP1 DUP3 MSTORE DUP1 PUSH1 0x20 MUL PUSH1 0x20 ADD DUP3 ADD PUSH1 0x40 MSTORE DUP1 ISZERO PUSH2 0xCD4 JUMPI DUP2 PUSH1 0x20 ADD PUSH1 0x20 DUP3 MUL DUP1 CODESIZE DUP4 CODECOPY DUP1 DUP3 ADD SWAP2 POP POP SWAP1 POP JUMPDEST POP SWAP9 POP DUP3 PUSH1 0x40 MLOAD SWAP1 DUP1 DUP3 MSTORE DUP1 PUSH1 0x20 MUL PUSH1 0x20 ADD DUP3 ADD PUSH1 0x40 MSTORE DUP1 ISZERO PUSH2 0xD06 JUMPI DUP2 PUSH1 0x20 ADD PUSH1 0x20 DUP3 MUL DUP1 CODESIZE DUP4 CODECOPY DUP1 DUP3 ADD SWAP2 POP POP SWAP1 POP JUMPDEST POP SWAP8 POP DUP3 PUSH1 0x40 MLOAD SWAP1 DUP1 DUP3 MSTORE DUP1 PUSH1 0x20 MUL PUSH1 0x20 ADD DUP3 ADD PUSH1 0x40 MSTORE DUP1 ISZERO PUSH2 0xD38 JUMPI DUP2 PUSH1 0x20 ADD PUSH1 0x20 DUP3 MUL DUP1 CODESIZE DUP4 CODECOPY DUP1 DUP3 ADD SWAP2 POP POP SWAP1 POP JUMPDEST POP SWAP7 POP DUP3 PUSH1 0x40 MLOAD SWAP1 DUP1 DUP3 MSTORE DUP1 PUSH1 0x20 MUL PUSH1 0x20 ADD DUP3 ADD PUSH1 0x40 MSTORE DUP1 ISZERO PUSH2 0xD6A JUMPI DUP2 PUSH1 0x20 ADD PUSH1 0x20 DUP3 MUL DUP1 CODESIZE DUP4 CODECOPY DUP1 DUP3 ADD SWAP2 POP POP SWAP1 POP JUMPDEST POP SWAP6 POP DUP3 PUSH1 0x40 MLOAD SWAP1 DUP1 DUP3 MSTORE DUP1 PUSH1 0x20 MUL PUSH1 0x20 ADD DUP3 ADD PUSH1 0x40 MSTORE DUP1 ISZERO PUSH2 0xD9C JUMPI DUP2 PUSH1 0x20 ADD PUSH1 0x20 DUP3 MUL DUP1 CODESIZE DUP4 CODECOPY DUP1 DUP3 ADD SWAP2 POP POP SWAP1 POP JUMPDEST POP SWAP5 POP PUSH1 0x0 SWAP2 POP JUMPDEST DUP3 DUP3 LT ISZERO PUSH2 0xEC1 JUMPI PUSH1 0x3 PUSH1 0x0 DUP6 DUP5 DUP2 SLOAD DUP2 LT ISZERO ISZERO PUSH2 0xDBE JUMPI INVALID JUMPDEST SWAP1 PUSH1 0x0 MSTORE PUSH1 0x20 PUSH1 0x0 KECCAK256 ADD SLOAD DUP2 MSTORE PUSH1 0x20 ADD SWAP1 DUP2 MSTORE PUSH1 0x20 ADD PUSH1 0x0 KECCAK256 SWAP1 POP DUP1 PUSH1 0x0 ADD SLOAD DUP11 DUP4 DUP2 MLOAD DUP2 LT ISZERO ISZERO PUSH2 0xDEC JUMPI INVALID JUMPDEST SWAP1 PUSH1 0x20 ADD SWAP1 PUSH1 0x20 MUL ADD DUP2 DUP2 MSTORE POP POP DUP1 PUSH1 0x1 ADD SLOAD DUP10 DUP4 DUP2 MLOAD DUP2 LT ISZERO ISZERO PUSH2 0xE0D JUMPI INVALID JUMPDEST SWAP1 PUSH1 0x20 ADD SWAP1 PUSH1 0x20 MUL ADD DUP2 DUP2 MSTORE POP POP DUP1 PUSH1 0x2 ADD SLOAD DUP9 DUP4 DUP2 MLOAD DUP2 LT ISZERO ISZERO PUSH2 0xE2E JUMPI INVALID JUMPDEST SWAP1 PUSH1 0x20 ADD SWAP1 PUSH1 0x20 MUL ADD DUP2 DUP2 MSTORE POP POP DUP1 PUSH1 0x3 ADD SLOAD DUP8 DUP4 DUP2 MLOAD DUP2 LT ISZERO ISZERO PUSH2 0xE4F JUMPI INVALID JUMPDEST SWAP1 PUSH1 0x20 ADD SWAP1 PUSH1 0x20 MUL ADD DUP2 DUP2 MSTORE POP POP DUP1 PUSH1 0x4 ADD PUSH1 0x0 SWAP1 SLOAD SWAP1 PUSH2 0x100 EXP SWAP1 DIV PUSH1 0xFF AND DUP7 DUP4 DUP2 MLOAD DUP2 LT ISZERO ISZERO PUSH2 0xE7D JUMPI INVALID JUMPDEST SWAP1 PUSH1 0x20 ADD SWAP1 PUSH1 0x20 MUL ADD SWAP1 PUSH1 0xFF AND SWAP1 DUP2 PUSH1 0xFF AND DUP2 MSTORE POP POP DUP1 PUSH1 0x5 ADD SLOAD DUP6 DUP4 DUP2 MLOAD DUP2 LT ISZERO ISZERO PUSH2 0xEA6 JUMPI INVALID JUMPDEST SWAP1 PUSH1 0x20 ADD SWAP1 PUSH1 0x20 MUL ADD DUP2 DUP2 MSTORE POP POP DUP2 DUP1 PUSH1 0x1 ADD SWAP3 POP POP PUSH2 0xDA4 JUMP JUMPDEST DUP10 DUP10 DUP10 DUP10 DUP10 DUP10 SWAP10 POP SWAP10 POP SWAP10 POP SWAP10 POP SWAP10 POP SWAP10 POP POP POP POP POP SWAP2 SWAP4 SWAP6 POP SWAP2 SWAP4 SWAP6 JUMP JUMPDEST PUSH1 0x3 PUSH1 0x20 MSTORE DUP1 PUSH1 0x0 MSTORE PUSH1 0x40 PUSH1 0x0 KECCAK256 PUSH1 0x0 SWAP2 POP SWAP1 POP DUP1 PUSH1 0x0 ADD SLOAD SWAP1 DUP1 PUSH1 0x1 ADD SLOAD SWAP1 DUP1 PUSH1 0x2 ADD SLOAD SWAP1 DUP1 PUSH1 0x3 ADD SLOAD SWAP1 DUP1 PUSH1 0x4 ADD PUSH1 0x0 SWAP1 SLOAD SWAP1 PUSH2 0x100 EXP SWAP1 DIV PUSH1 0xFF AND SWAP1 DUP1 PUSH1 0x5 ADD SLOAD SWAP1 DUP1 PUSH1 0x6 ADD PUSH1 0x0 SWAP1 SLOAD SWAP1 PUSH2 0x100 EXP SWAP1 DIV PUSH1 0xFF AND SWAP1 POP DUP8 JUMP JUMPDEST PUSH1 0x0 SLOAD DUP2 JUMP JUMPDEST PUSH1 0xE0 PUSH1 0x40 MLOAD SWAP1 DUP2 ADD PUSH1 0x40 MSTORE DUP1 PUSH1 0x0 DUP2 MSTORE PUSH1 0x20 ADD PUSH1 0x0 DUP2 MSTORE PUSH1 0x20 ADD PUSH1 0x0 DUP2 MSTORE PUSH1 0x20 ADD PUSH1 0x0 DUP2 MSTORE PUSH1 0x20 ADD PUSH1 0x0 PUSH1 0xFF AND DUP2 MSTORE PUSH1 0x20 ADD PUSH1 0x0 DUP2 MSTORE PUSH1 0x20 ADD PUSH1 0x0 ISZERO ISZERO DUP2 MSTORE POP SWAP1 JUMP JUMPDEST PUSH1 0xC0 PUSH1 0x40 MLOAD SWAP1 DUP2 ADD PUSH1 0x40 MSTORE DUP1 PUSH1 0x0 DUP2 MSTORE PUSH1 0x20 ADD PUSH1 0x0 DUP2 MSTORE PUSH1 0x20 ADD PUSH1 0x0 DUP2 MSTORE PUSH1 0x20 ADD PUSH1 0x0 DUP2 MSTORE PUSH1 0x20 ADD PUSH1 0x0 DUP2 MSTORE PUSH1 0x20 ADD PUSH1 0x0 ISZERO ISZERO DUP2 MSTORE POP SWAP1 JUMP STOP LOG1 PUSH6 0x627A7A723058 KECCAK256 0x26 DUP15 0xee PUSH16 0xC552C9639E0301B78915E4236C434948 0x2a 0x4b 0xfc 0xc6 0xc3 0x28 0xef 0xb2 0x1e 0xee SWAP15 0xe2 STOP 0x29 "
				},
				"gasEstimates": {
					"creation": {
						"codeDepositCost": "814800",
						"executionCost": "40879",
						"totalCost": "855679"
					},
					"external": {
						"bidRecords(uint256)": "1880",
						"getBidRecordsByItem(uint256)": "infinite",
						"getOrdersByUser(uint256)": "infinite",
						"itemBidRecords(uint256,uint256)": "885",
						"nextBidRecordId()": "592",
						"nextOrderId()": "460",
						"orders(uint256)": "2204",
						"recordBid(uint256,uint256,uint256,uint256)": "184781",
						"recordOrder(uint256,uint256,uint256,uint256,uint8,uint256)": "184073",
						"userOrders(uint256,uint256)": "841"
					}
				},
				"methodIdentifiers": {
					"bidRecords(uint256)": "9bab0586",
					"getBidRecordsByItem(uint256)": "79fe1130",
					"getOrdersByUser(uint256)": "a13b0196",
					"itemBidRecords(uint256,uint256)": "142d8a3e",
					"nextBidRecordId()": "e652ba76",
					"nextOrderId()": "2a58b330",
					"orders(uint256)": "a85c38ef",
					"recordBid(uint256,uint256,uint256,uint256)": "79ba5664",
					"recordOrder(uint256,uint256,uint256,uint256,uint8,uint256)": "0dc8c9b3",
					"userOrders(uint256,uint256)": "06703c65"
				}
			},
			"userdoc": {
				"methods": {}
			}
		}
	}
}